{
  "contractName": "NFT_template",
  "abi": [
    {
      "inputs": [],
      "stateMutability": "nonpayable",
      "type": "constructor"
    },
    {
      "anonymous": false,
      "inputs": [
        {
          "indexed": true,
          "internalType": "address",
          "name": "owner",
          "type": "address"
        },
        {
          "indexed": true,
          "internalType": "address",
          "name": "approved",
          "type": "address"
        },
        {
          "indexed": true,
          "internalType": "uint256",
          "name": "tokenId",
          "type": "uint256"
        }
      ],
      "name": "Approval",
      "type": "event"
    },
    {
      "anonymous": false,
      "inputs": [
        {
          "indexed": true,
          "internalType": "address",
          "name": "owner",
          "type": "address"
        },
        {
          "indexed": true,
          "internalType": "address",
          "name": "operator",
          "type": "address"
        },
        {
          "indexed": false,
          "internalType": "bool",
          "name": "approved",
          "type": "bool"
        }
      ],
      "name": "ApprovalForAll",
      "type": "event"
    },
    {
      "anonymous": false,
      "inputs": [
        {
          "indexed": true,
          "internalType": "address",
          "name": "previousOwner",
          "type": "address"
        },
        {
          "indexed": true,
          "internalType": "address",
          "name": "newOwner",
          "type": "address"
        }
      ],
      "name": "OwnershipTransferred",
      "type": "event"
    },
    {
      "anonymous": false,
      "inputs": [
        {
          "indexed": false,
          "internalType": "address",
          "name": "account",
          "type": "address"
        }
      ],
      "name": "Paused",
      "type": "event"
    },
    {
      "anonymous": false,
      "inputs": [
        {
          "indexed": true,
          "internalType": "address",
          "name": "from",
          "type": "address"
        },
        {
          "indexed": true,
          "internalType": "address",
          "name": "to",
          "type": "address"
        },
        {
          "indexed": true,
          "internalType": "uint256",
          "name": "tokenId",
          "type": "uint256"
        }
      ],
      "name": "Transfer",
      "type": "event"
    },
    {
      "anonymous": false,
      "inputs": [
        {
          "indexed": false,
          "internalType": "address",
          "name": "account",
          "type": "address"
        }
      ],
      "name": "Unpaused",
      "type": "event"
    },
    {
      "inputs": [
        {
          "internalType": "address",
          "name": "to",
          "type": "address"
        },
        {
          "internalType": "uint256",
          "name": "tokenId",
          "type": "uint256"
        }
      ],
      "name": "approve",
      "outputs": [],
      "stateMutability": "nonpayable",
      "type": "function"
    },
    {
      "inputs": [
        {
          "internalType": "address",
          "name": "owner",
          "type": "address"
        }
      ],
      "name": "balanceOf",
      "outputs": [
        {
          "internalType": "uint256",
          "name": "",
          "type": "uint256"
        }
      ],
      "stateMutability": "view",
      "type": "function"
    },
    {
      "inputs": [
        {
          "internalType": "uint256",
          "name": "tokenId",
          "type": "uint256"
        }
      ],
      "name": "getApproved",
      "outputs": [
        {
          "internalType": "address",
          "name": "",
          "type": "address"
        }
      ],
      "stateMutability": "view",
      "type": "function"
    },
    {
      "inputs": [
        {
          "internalType": "address",
          "name": "owner",
          "type": "address"
        },
        {
          "internalType": "address",
          "name": "operator",
          "type": "address"
        }
      ],
      "name": "isApprovedForAll",
      "outputs": [
        {
          "internalType": "bool",
          "name": "",
          "type": "bool"
        }
      ],
      "stateMutability": "view",
      "type": "function"
    },
    {
      "inputs": [],
      "name": "name",
      "outputs": [
        {
          "internalType": "string",
          "name": "",
          "type": "string"
        }
      ],
      "stateMutability": "view",
      "type": "function"
    },
    {
      "inputs": [],
      "name": "owner",
      "outputs": [
        {
          "internalType": "address",
          "name": "",
          "type": "address"
        }
      ],
      "stateMutability": "view",
      "type": "function"
    },
    {
      "inputs": [
        {
          "internalType": "uint256",
          "name": "tokenId",
          "type": "uint256"
        }
      ],
      "name": "ownerOf",
      "outputs": [
        {
          "internalType": "address",
          "name": "",
          "type": "address"
        }
      ],
      "stateMutability": "view",
      "type": "function"
    },
    {
      "inputs": [],
      "name": "paused",
      "outputs": [
        {
          "internalType": "bool",
          "name": "",
          "type": "bool"
        }
      ],
      "stateMutability": "view",
      "type": "function"
    },
    {
      "inputs": [],
      "name": "renounceOwnership",
      "outputs": [],
      "stateMutability": "nonpayable",
      "type": "function"
    },
    {
      "inputs": [
        {
          "internalType": "address",
          "name": "from",
          "type": "address"
        },
        {
          "internalType": "address",
          "name": "to",
          "type": "address"
        },
        {
          "internalType": "uint256",
          "name": "tokenId",
          "type": "uint256"
        }
      ],
      "name": "safeTransferFrom",
      "outputs": [],
      "stateMutability": "nonpayable",
      "type": "function"
    },
    {
      "inputs": [
        {
          "internalType": "address",
          "name": "from",
          "type": "address"
        },
        {
          "internalType": "address",
          "name": "to",
          "type": "address"
        },
        {
          "internalType": "uint256",
          "name": "tokenId",
          "type": "uint256"
        },
        {
          "internalType": "bytes",
          "name": "_data",
          "type": "bytes"
        }
      ],
      "name": "safeTransferFrom",
      "outputs": [],
      "stateMutability": "nonpayable",
      "type": "function"
    },
    {
      "inputs": [
        {
          "internalType": "address",
          "name": "operator",
          "type": "address"
        },
        {
          "internalType": "bool",
          "name": "approved",
          "type": "bool"
        }
      ],
      "name": "setApprovalForAll",
      "outputs": [],
      "stateMutability": "nonpayable",
      "type": "function"
    },
    {
      "inputs": [
        {
          "internalType": "bytes4",
          "name": "interfaceId",
          "type": "bytes4"
        }
      ],
      "name": "supportsInterface",
      "outputs": [
        {
          "internalType": "bool",
          "name": "",
          "type": "bool"
        }
      ],
      "stateMutability": "view",
      "type": "function"
    },
    {
      "inputs": [],
      "name": "symbol",
      "outputs": [
        {
          "internalType": "string",
          "name": "",
          "type": "string"
        }
      ],
      "stateMutability": "view",
      "type": "function"
    },
    {
      "inputs": [
        {
          "internalType": "uint256",
          "name": "index",
          "type": "uint256"
        }
      ],
      "name": "tokenByIndex",
      "outputs": [
        {
          "internalType": "uint256",
          "name": "",
          "type": "uint256"
        }
      ],
      "stateMutability": "view",
      "type": "function"
    },
    {
      "inputs": [
        {
          "internalType": "address",
          "name": "owner",
          "type": "address"
        },
        {
          "internalType": "uint256",
          "name": "index",
          "type": "uint256"
        }
      ],
      "name": "tokenOfOwnerByIndex",
      "outputs": [
        {
          "internalType": "uint256",
          "name": "",
          "type": "uint256"
        }
      ],
      "stateMutability": "view",
      "type": "function"
    },
    {
      "inputs": [],
      "name": "totalSupply",
      "outputs": [
        {
          "internalType": "uint256",
          "name": "",
          "type": "uint256"
        }
      ],
      "stateMutability": "view",
      "type": "function"
    },
    {
      "inputs": [
        {
          "internalType": "address",
          "name": "from",
          "type": "address"
        },
        {
          "internalType": "address",
          "name": "to",
          "type": "address"
        },
        {
          "internalType": "uint256",
          "name": "tokenId",
          "type": "uint256"
        }
      ],
      "name": "transferFrom",
      "outputs": [],
      "stateMutability": "nonpayable",
      "type": "function"
    },
    {
      "inputs": [
        {
          "internalType": "address",
          "name": "newOwner",
          "type": "address"
        }
      ],
      "name": "transferOwnership",
      "outputs": [],
      "stateMutability": "nonpayable",
      "type": "function"
    },
    {
      "inputs": [],
      "name": "flipSaleActive",
      "outputs": [],
      "stateMutability": "nonpayable",
      "type": "function"
    },
    {
      "inputs": [],
      "name": "flipReveal",
      "outputs": [],
      "stateMutability": "nonpayable",
      "type": "function"
    },
    {
      "inputs": [
        {
          "internalType": "uint256",
          "name": "_startTime",
          "type": "uint256"
        },
        {
          "internalType": "uint256",
          "name": "_endTime",
          "type": "uint256"
        }
      ],
      "name": "setTime",
      "outputs": [],
      "stateMutability": "nonpayable",
      "type": "function"
    },
    {
      "inputs": [
        {
          "internalType": "uint256",
          "name": "tokenId",
          "type": "uint256"
        }
      ],
      "name": "tokenURI",
      "outputs": [
        {
          "internalType": "string",
          "name": "",
          "type": "string"
        }
      ],
      "stateMutability": "view",
      "type": "function"
    },
    {
      "inputs": [
        {
          "internalType": "string",
          "name": "_newBaseURI",
          "type": "string"
        }
      ],
      "name": "setBaseURI",
      "outputs": [],
      "stateMutability": "nonpayable",
      "type": "function"
    },
    {
      "inputs": [
        {
          "internalType": "string",
          "name": "_notRevealedURI",
          "type": "string"
        }
      ],
      "name": "setNotRevealedURI",
      "outputs": [],
      "stateMutability": "nonpayable",
      "type": "function"
    },
    {
      "inputs": [
        {
          "internalType": "string",
          "name": "_newBaseExtension",
          "type": "string"
        }
      ],
      "name": "setBaseExtension",
      "outputs": [],
      "stateMutability": "nonpayable",
      "type": "function"
    },
    {
      "inputs": [
        {
          "internalType": "uint256",
          "name": "tokenQuantity",
          "type": "uint256"
        }
      ],
      "name": "mint",
      "outputs": [],
      "stateMutability": "payable",
      "type": "function"
    },
    {
      "inputs": [
        {
          "internalType": "uint256",
          "name": "amount",
          "type": "uint256"
        }
      ],
      "name": "withdrawBalance",
      "outputs": [],
      "stateMutability": "nonpayable",
      "type": "function"
    },
    {
      "inputs": [],
      "name": "checkBalance",
      "outputs": [
        {
          "internalType": "uint256",
          "name": "",
          "type": "uint256"
        }
      ],
      "stateMutability": "view",
      "type": "function"
    },
    {
      "inputs": [],
      "name": "getTime",
      "outputs": [
        {
          "internalType": "uint256",
          "name": "",
          "type": "uint256"
        }
      ],
      "stateMutability": "view",
      "type": "function"
    }
  ],
  "bytecode": "0x60806040526000600d60006101000a81548160ff0219169083151502179055506000600d60016101000a81548160ff021916908315150217905550662386f26fc10000600e556001600f5560016010556040518060400160405280600581526020017f2e6a736f6e000000000000000000000000000000000000000000000000000000815250601390805190602001906200009c92919062000cf2565b50348015620000aa57600080fd5b506040518060400160405280600d81526020017f5a4554415f536f7576656e6972000000000000000000000000000000000000008152506040518060400160405280600481526020017f5a4554410000000000000000000000000000000000000000000000000000000081525081600090805190602001906200012f92919062000cf2565b5080600190805190602001906200014892919062000cf2565b5050506200016b6200015f6200019e60201b60201c565b620001a660201b60201c565b6000600a60146101000a81548160ff0219169083151502179055506200019860636200026c60201b60201c565b6200138b565b600033905090565b6000600a60009054906101000a900473ffffffffffffffffffffffffffffffffffffffff16905081600a60006101000a81548173ffffffffffffffffffffffffffffffffffffffff021916908373ffffffffffffffffffffffffffffffffffffffff1602179055508173ffffffffffffffffffffffffffffffffffffffff168173ffffffffffffffffffffffffffffffffffffffff167f8be0079c531659141344cd1fd0a4f28419497f9722a3daafe3b4186f6b6457e060405160405180910390a35050565b60005b81811015620002d05760006200028a620002d460201b60201c565b90506103e76200029f620002d460201b60201c565b1015620002b957620002b83382620002e160201b60201c565b5b508080620002c79062000ddb565b9150506200026f565b5050565b6000600880549050905090565b620003038282604051806020016040528060008152506200030760201b60201c565b5050565b6200031983836200037560201b60201c565b6200032e60008484846200056f60201b60201c565b62000370576040517f08c379a0000000000000000000000000000000000000000000000000000000008152600401620003679062000eb0565b60405180910390fd5b505050565b600073ffffffffffffffffffffffffffffffffffffffff168273ffffffffffffffffffffffffffffffffffffffff161415620003e8576040517f08c379a0000000000000000000000000000000000000000000000000000000008152600401620003df9062000f22565b60405180910390fd5b620003f9816200072960201b60201c565b156200043c576040517f08c379a0000000000000000000000000000000000000000000000000000000008152600401620004339062000f94565b60405180910390fd5b62000450600083836200079560201b60201c565b6001600360008473ffffffffffffffffffffffffffffffffffffffff1673ffffffffffffffffffffffffffffffffffffffff1681526020019081526020016000206000828254620004a2919062000fb6565b92505081905550816002600083815260200190815260200160002060006101000a81548173ffffffffffffffffffffffffffffffffffffffff021916908373ffffffffffffffffffffffffffffffffffffffff160217905550808273ffffffffffffffffffffffffffffffffffffffff16600073ffffffffffffffffffffffffffffffffffffffff167fddf252ad1be2c89b69c2b068fc378daa952ba7f163c4a11628f55a4df523b3ef60405160405180910390a46200056b60008383620008dc60201b60201c565b5050565b60006200059d8473ffffffffffffffffffffffffffffffffffffffff16620008e160201b620018431760201c565b156200071c578373ffffffffffffffffffffffffffffffffffffffff1663150b7a02620005cf6200019e60201b60201c565b8786866040518563ffffffff1660e01b8152600401620005f394939291906200110d565b602060405180830381600087803b1580156200060e57600080fd5b505af19250505080156200064257506040513d601f19601f820116820180604052508101906200063f9190620011c3565b60015b620006cb573d806000811462000675576040519150601f19603f3d011682016040523d82523d6000602084013e6200067a565b606091505b50600081511415620006c3576040517f08c379a0000000000000000000000000000000000000000000000000000000008152600401620006ba9062000eb0565b60405180910390fd5b805181602001fd5b63150b7a0260e01b7bffffffffffffffffffffffffffffffffffffffffffffffffffffffff1916817bffffffffffffffffffffffffffffffffffffffffffffffffffffffff19161491505062000721565b600190505b949350505050565b60008073ffffffffffffffffffffffffffffffffffffffff166002600084815260200190815260200160002060009054906101000a900473ffffffffffffffffffffffffffffffffffffffff1673ffffffffffffffffffffffffffffffffffffffff1614159050919050565b620007ad8383836200090460201b620018661760201c565b600073ffffffffffffffffffffffffffffffffffffffff168373ffffffffffffffffffffffffffffffffffffffff161415620007fa57620007f4816200090960201b60201c565b62000842565b8173ffffffffffffffffffffffffffffffffffffffff168373ffffffffffffffffffffffffffffffffffffffff161462000841576200084083826200095260201b60201c565b5b5b600073ffffffffffffffffffffffffffffffffffffffff168273ffffffffffffffffffffffffffffffffffffffff1614156200088f57620008898162000acf60201b60201c565b620008d7565b8273ffffffffffffffffffffffffffffffffffffffff168273ffffffffffffffffffffffffffffffffffffffff1614620008d657620008d5828262000bab60201b60201c565b5b5b505050565b505050565b6000808273ffffffffffffffffffffffffffffffffffffffff163b119050919050565b505050565b6008805490506009600083815260200190815260200160002081905550600881908060018154018082558091505060019003906000526020600020016000909190919091505550565b600060016200096c8462000c3760201b62000d661760201c565b620009789190620011f5565b905060006007600084815260200190815260200160002054905081811462000a5e576000600660008673ffffffffffffffffffffffffffffffffffffffff1673ffffffffffffffffffffffffffffffffffffffff168152602001908152602001600020600084815260200190815260200160002054905080600660008773ffffffffffffffffffffffffffffffffffffffff1673ffffffffffffffffffffffffffffffffffffffff168152602001908152602001600020600084815260200190815260200160002081905550816007600083815260200190815260200160002081905550505b6007600084815260200190815260200160002060009055600660008573ffffffffffffffffffffffffffffffffffffffff1673ffffffffffffffffffffffffffffffffffffffff16815260200190815260200160002060008381526020019081526020016000206000905550505050565b6000600160088054905062000ae59190620011f5565b905060006009600084815260200190815260200160002054905060006008838154811062000b185762000b1762001230565b5b90600052602060002001549050806008838154811062000b3d5762000b3c62001230565b5b90600052602060002001819055508160096000838152602001908152602001600020819055506009600085815260200190815260200160002060009055600880548062000b8f5762000b8e6200125f565b5b6001900381819060005260206000200160009055905550505050565b600062000bc38362000c3760201b62000d661760201c565b905081600660008573ffffffffffffffffffffffffffffffffffffffff1673ffffffffffffffffffffffffffffffffffffffff168152602001908152602001600020600083815260200190815260200160002081905550806007600084815260200190815260200160002081905550505050565b60008073ffffffffffffffffffffffffffffffffffffffff168273ffffffffffffffffffffffffffffffffffffffff16141562000cab576040517f08c379a000000000000000000000000000000000000000000000000000000000815260040162000ca29062001304565b60405180910390fd5b600360008373ffffffffffffffffffffffffffffffffffffffff1673ffffffffffffffffffffffffffffffffffffffff168152602001908152602001600020549050919050565b82805462000d009062001355565b90600052602060002090601f01602090048101928262000d24576000855562000d70565b82601f1062000d3f57805160ff191683800117855562000d70565b8280016001018555821562000d70579182015b8281111562000d6f57825182559160200191906001019062000d52565b5b50905062000d7f919062000d83565b5090565b5b8082111562000d9e57600081600090555060010162000d84565b5090565b7f4e487b7100000000000000000000000000000000000000000000000000000000600052601160045260246000fd5b6000819050919050565b600062000de88262000dd1565b91507fffffffffffffffffffffffffffffffffffffffffffffffffffffffffffffffff82141562000e1e5762000e1d62000da2565b5b600182019050919050565b600082825260208201905092915050565b7f4552433732313a207472616e7366657220746f206e6f6e20455243373231526560008201527f63656976657220696d706c656d656e7465720000000000000000000000000000602082015250565b600062000e9860328362000e29565b915062000ea58262000e3a565b604082019050919050565b6000602082019050818103600083015262000ecb8162000e89565b9050919050565b7f4552433732313a206d696e7420746f20746865207a65726f2061646472657373600082015250565b600062000f0a60208362000e29565b915062000f178262000ed2565b602082019050919050565b6000602082019050818103600083015262000f3d8162000efb565b9050919050565b7f4552433732313a20746f6b656e20616c7265616479206d696e74656400000000600082015250565b600062000f7c601c8362000e29565b915062000f898262000f44565b602082019050919050565b6000602082019050818103600083015262000faf8162000f6d565b9050919050565b600062000fc38262000dd1565b915062000fd08362000dd1565b9250827fffffffffffffffffffffffffffffffffffffffffffffffffffffffffffffffff0382111562001008576200100762000da2565b5b828201905092915050565b600073ffffffffffffffffffffffffffffffffffffffff82169050919050565b6000620010408262001013565b9050919050565b620010528162001033565b82525050565b620010638162000dd1565b82525050565b600081519050919050565b600082825260208201905092915050565b60005b83811015620010a557808201518184015260208101905062001088565b83811115620010b5576000848401525b50505050565b6000601f19601f8301169050919050565b6000620010d98262001069565b620010e5818562001074565b9350620010f781856020860162001085565b6200110281620010bb565b840191505092915050565b600060808201905062001124600083018762001047565b62001133602083018662001047565b62001142604083018562001058565b8181036060830152620011568184620010cc565b905095945050505050565b600080fd5b60007fffffffff0000000000000000000000000000000000000000000000000000000082169050919050565b6200119d8162001166565b8114620011a957600080fd5b50565b600081519050620011bd8162001192565b92915050565b600060208284031215620011dc57620011db62001161565b5b6000620011ec84828501620011ac565b91505092915050565b6000620012028262000dd1565b91506200120f8362000dd1565b92508282101562001225576200122462000da2565b5b828203905092915050565b7f4e487b7100000000000000000000000000000000000000000000000000000000600052603260045260246000fd5b7f4e487b7100000000000000000000000000000000000000000000000000000000600052603160045260246000fd5b7f4552433732313a2062616c616e636520717565727920666f7220746865207a6560008201527f726f206164647265737300000000000000000000000000000000000000000000602082015250565b6000620012ec602a8362000e29565b9150620012f9826200128e565b604082019050919050565b600060208201905081810360008301526200131f81620012dd565b9050919050565b7f4e487b7100000000000000000000000000000000000000000000000000000000600052602260045260246000fd5b600060028204905060018216806200136e57607f821691505b6020821081141562001385576200138462001326565b5b50919050565b6143f5806200139b6000396000f3fe6080604052600436106101cd5760003560e01c8063715018a6116100f7578063c71daccb11610095578063de8b51e111610064578063de8b51e114610665578063e985e9c51461067c578063f2c4ce1e146106b9578063f2fde38b146106e2576101cd565b8063c71daccb146105ab578063c87b56dd146105d6578063da3ef23f14610613578063da76d5cd1461063c576101cd565b8063a0355eca116100d1578063a0355eca14610514578063a0712d681461053d578063a22cb46514610559578063b88d4fde14610582576101cd565b8063715018a6146104a75780638da5cb5b146104be57806395d89b41146104e9576101cd565b80633b84d9c61161016f57806355f804b31161013e57806355f804b3146103d95780635c975abb146104025780636352211e1461042d57806370a082311461046a576101cd565b80633b84d9c61461033157806342842e0e146103485780634f6ccce714610371578063557ed1ba146103ae576101cd565b8063095ea7b3116101ab578063095ea7b31461027757806318160ddd146102a057806323b872dd146102cb5780632f745c59146102f4576101cd565b806301ffc9a7146101d257806306fdde031461020f578063081812fc1461023a575b600080fd5b3480156101de57600080fd5b506101f960048036038101906101f49190612c0e565b61070b565b6040516102069190612c56565b60405180910390f35b34801561021b57600080fd5b50610224610785565b6040516102319190612d0a565b60405180910390f35b34801561024657600080fd5b50610261600480360381019061025c9190612d62565b610817565b60405161026e9190612dd0565b60405180910390f35b34801561028357600080fd5b5061029e60048036038101906102999190612e17565b61089c565b005b3480156102ac57600080fd5b506102b56109b4565b6040516102c29190612e66565b60405180910390f35b3480156102d757600080fd5b506102f260048036038101906102ed9190612e81565b6109c1565b005b34801561030057600080fd5b5061031b60048036038101906103169190612e17565b610a21565b6040516103289190612e66565b60405180910390f35b34801561033d57600080fd5b50610346610ac6565b005b34801561035457600080fd5b5061036f600480360381019061036a9190612e81565b610b6e565b005b34801561037d57600080fd5b5061039860048036038101906103939190612d62565b610b8e565b6040516103a59190612e66565b60405180910390f35b3480156103ba57600080fd5b506103c3610bff565b6040516103d09190612e66565b60405180910390f35b3480156103e557600080fd5b5061040060048036038101906103fb9190613009565b610c07565b005b34801561040e57600080fd5b50610417610c9d565b6040516104249190612c56565b60405180910390f35b34801561043957600080fd5b50610454600480360381019061044f9190612d62565b610cb4565b6040516104619190612dd0565b60405180910390f35b34801561047657600080fd5b50610491600480360381019061048c9190613052565b610d66565b60405161049e9190612e66565b60405180910390f35b3480156104b357600080fd5b506104bc610e1e565b005b3480156104ca57600080fd5b506104d3610ea6565b6040516104e09190612dd0565b60405180910390f35b3480156104f557600080fd5b506104fe610ed0565b60405161050b9190612d0a565b60405180910390f35b34801561052057600080fd5b5061053b6004803603810190610536919061307f565b610f62565b005b61055760048036038101906105529190612d62565b610ff0565b005b34801561056557600080fd5b50610580600480360381019061057b91906130eb565b61122a565b005b34801561058e57600080fd5b506105a960048036038101906105a491906131cc565b611240565b005b3480156105b757600080fd5b506105c06112a2565b6040516105cd9190612e66565b60405180910390f35b3480156105e257600080fd5b506105fd60048036038101906105f89190612d62565b6112aa565b60405161060a9190612d0a565b60405180910390f35b34801561061f57600080fd5b5061063a60048036038101906106359190613009565b611410565b005b34801561064857600080fd5b50610663600480360381019061065e9190612d62565b6114a6565b005b34801561067157600080fd5b5061067a611579565b005b34801561068857600080fd5b506106a3600480360381019061069e919061324f565b611621565b6040516106b09190612c56565b60405180910390f35b3480156106c557600080fd5b506106e060048036038101906106db9190613009565b6116b5565b005b3480156106ee57600080fd5b5061070960048036038101906107049190613052565b61174b565b005b60007f780e9d63000000000000000000000000000000000000000000000000000000007bffffffffffffffffffffffffffffffffffffffffffffffffffffffff1916827bffffffffffffffffffffffffffffffffffffffffffffffffffffffff1916148061077e575061077d8261186b565b5b9050919050565b606060008054610794906132be565b80601f01602080910402602001604051908101604052809291908181526020018280546107c0906132be565b801561080d5780601f106107e25761010080835404028352916020019161080d565b820191906000526020600020905b8154815290600101906020018083116107f057829003601f168201915b5050505050905090565b60006108228261194d565b610861576040517f08c379a000000000000000000000000000000000000000000000000000000000815260040161085890613362565b60405180910390fd5b6004600083815260200190815260200160002060009054906101000a900473ffffffffffffffffffffffffffffffffffffffff169050919050565b60006108a782610cb4565b90508073ffffffffffffffffffffffffffffffffffffffff168373ffffffffffffffffffffffffffffffffffffffff161415610918576040517f08c379a000000000000000000000000000000000000000000000000000000000815260040161090f906133f4565b60405180910390fd5b8073ffffffffffffffffffffffffffffffffffffffff166109376119b9565b73ffffffffffffffffffffffffffffffffffffffff1614806109665750610965816109606119b9565b611621565b5b6109a5576040517f08c379a000000000000000000000000000000000000000000000000000000000815260040161099c90613486565b60405180910390fd5b6109af83836119c1565b505050565b6000600880549050905090565b6109d26109cc6119b9565b82611a7a565b610a11576040517f08c379a0000000000000000000000000000000000000000000000000000000008152600401610a0890613518565b60405180910390fd5b610a1c838383611b58565b505050565b6000610a2c83610d66565b8210610a6d576040517f08c379a0000000000000000000000000000000000000000000000000000000008152600401610a64906135aa565b60405180910390fd5b600660008473ffffffffffffffffffffffffffffffffffffffff1673ffffffffffffffffffffffffffffffffffffffff168152602001908152602001600020600083815260200190815260200160002054905092915050565b610ace6119b9565b73ffffffffffffffffffffffffffffffffffffffff16610aec610ea6565b73ffffffffffffffffffffffffffffffffffffffff1614610b42576040517f08c379a0000000000000000000000000000000000000000000000000000000008152600401610b3990613616565b60405180910390fd5b600d60019054906101000a900460ff1615600d60016101000a81548160ff021916908315150217905550565b610b8983838360405180602001604052806000815250611240565b505050565b6000610b986109b4565b8210610bd9576040517f08c379a0000000000000000000000000000000000000000000000000000000008152600401610bd0906136a8565b60405180910390fd5b60088281548110610bed57610bec6136c8565b5b90600052602060002001549050919050565b600042905090565b610c0f6119b9565b73ffffffffffffffffffffffffffffffffffffffff16610c2d610ea6565b73ffffffffffffffffffffffffffffffffffffffff1614610c83576040517f08c379a0000000000000000000000000000000000000000000000000000000008152600401610c7a90613616565b60405180910390fd5b8060119080519060200190610c99929190612aff565b5050565b6000600a60149054906101000a900460ff16905090565b6000806002600084815260200190815260200160002060009054906101000a900473ffffffffffffffffffffffffffffffffffffffff169050600073ffffffffffffffffffffffffffffffffffffffff168173ffffffffffffffffffffffffffffffffffffffff161415610d5d576040517f08c379a0000000000000000000000000000000000000000000000000000000008152600401610d5490613769565b60405180910390fd5b80915050919050565b60008073ffffffffffffffffffffffffffffffffffffffff168273ffffffffffffffffffffffffffffffffffffffff161415610dd7576040517f08c379a0000000000000000000000000000000000000000000000000000000008152600401610dce906137fb565b60405180910390fd5b600360008373ffffffffffffffffffffffffffffffffffffffff1673ffffffffffffffffffffffffffffffffffffffff168152602001908152602001600020549050919050565b610e266119b9565b73ffffffffffffffffffffffffffffffffffffffff16610e44610ea6565b73ffffffffffffffffffffffffffffffffffffffff1614610e9a576040517f08c379a0000000000000000000000000000000000000000000000000000000008152600401610e9190613616565b60405180910390fd5b610ea46000611dbf565b565b6000600a60009054906101000a900473ffffffffffffffffffffffffffffffffffffffff16905090565b606060018054610edf906132be565b80601f0160208091040260200160405190810160405280929190818152602001828054610f0b906132be565b8015610f585780601f10610f2d57610100808354040283529160200191610f58565b820191906000526020600020905b815481529060010190602001808311610f3b57829003601f168201915b5050505050905090565b610f6a6119b9565b73ffffffffffffffffffffffffffffffffffffffff16610f88610ea6565b73ffffffffffffffffffffffffffffffffffffffff1614610fde576040517f08c379a0000000000000000000000000000000000000000000000000000000008152600401610fd590613616565b60405180910390fd5b81600b8190555080600c819055505050565b610ff8610c9d565b15611038576040517f08c379a000000000000000000000000000000000000000000000000000000000815260040161102f90613867565b60405180910390fd5b600b54421015801561104c5750600c544211155b61108b576040517f08c379a0000000000000000000000000000000000000000000000000000000008152600401611082906138d3565b60405180910390fd5b6103e7816110976109b4565b6110a19190613922565b11156110e2576040517f08c379a00000000000000000000000000000000000000000000000000000000081526004016110d9906139c4565b60405180910390fd5b600d60009054906101000a900460ff16611131576040517f08c379a000000000000000000000000000000000000000000000000000000000815260040161112890613a30565b60405180910390fd5b600f548161113e33610d66565b6111489190613922565b1115611189576040517f08c379a000000000000000000000000000000000000000000000000000000000815260040161118090613a9c565b60405180910390fd5b34600e54826111989190613abc565b11156111d9576040517f08c379a00000000000000000000000000000000000000000000000000000000081526004016111d090613b62565b60405180910390fd5b60105481111561121e576040517f08c379a000000000000000000000000000000000000000000000000000000000815260040161121590613bce565b60405180910390fd5b61122781611e85565b50565b61123c6112356119b9565b8383611ed0565b5050565b61125161124b6119b9565b83611a7a565b611290576040517f08c379a000000000000000000000000000000000000000000000000000000000815260040161128790613518565b60405180910390fd5b61129c8484848461203d565b50505050565b600047905090565b60606112b58261194d565b6112f4576040517f08c379a00000000000000000000000000000000000000000000000000000000081526004016112eb90613c60565b60405180910390fd5b60001515600d60019054906101000a900460ff16151514156113a2576012805461131d906132be565b80601f0160208091040260200160405190810160405280929190818152602001828054611349906132be565b80156113965780601f1061136b57610100808354040283529160200191611396565b820191906000526020600020905b81548152906001019060200180831161137957829003601f168201915b5050505050905061140b565b60006113ac612099565b90506000601180546113bd906132be565b9050116113d95760405180602001604052806000815250611407565b806113e38461212b565b60136040516020016113f793929190613d50565b6040516020818303038152906040525b9150505b919050565b6114186119b9565b73ffffffffffffffffffffffffffffffffffffffff16611436610ea6565b73ffffffffffffffffffffffffffffffffffffffff161461148c576040517f08c379a000000000000000000000000000000000000000000000000000000000815260040161148390613616565b60405180910390fd5b80601390805190602001906114a2929190612aff565b5050565b6114ae6119b9565b73ffffffffffffffffffffffffffffffffffffffff166114cc610ea6565b73ffffffffffffffffffffffffffffffffffffffff1614611522576040517f08c379a000000000000000000000000000000000000000000000000000000000815260040161151990613616565b60405180910390fd5b600061152c610ea6565b90508073ffffffffffffffffffffffffffffffffffffffff166108fc839081150290604051600060405180830381858888f19350505050158015611574573d6000803e3d6000fd5b505050565b6115816119b9565b73ffffffffffffffffffffffffffffffffffffffff1661159f610ea6565b73ffffffffffffffffffffffffffffffffffffffff16146115f5576040517f08c379a00000000000000000000000000000000000000000000000000000000081526004016115ec90613616565b60405180910390fd5b600d60009054906101000a900460ff1615600d60006101000a81548160ff021916908315150217905550565b6000600560008473ffffffffffffffffffffffffffffffffffffffff1673ffffffffffffffffffffffffffffffffffffffff16815260200190815260200160002060008373ffffffffffffffffffffffffffffffffffffffff1673ffffffffffffffffffffffffffffffffffffffff16815260200190815260200160002060009054906101000a900460ff16905092915050565b6116bd6119b9565b73ffffffffffffffffffffffffffffffffffffffff166116db610ea6565b73ffffffffffffffffffffffffffffffffffffffff1614611731576040517f08c379a000000000000000000000000000000000000000000000000000000000815260040161172890613616565b60405180910390fd5b8060129080519060200190611747929190612aff565b5050565b6117536119b9565b73ffffffffffffffffffffffffffffffffffffffff16611771610ea6565b73ffffffffffffffffffffffffffffffffffffffff16146117c7576040517f08c379a00000000000000000000000000000000000000000000000000000000081526004016117be90613616565b60405180910390fd5b600073ffffffffffffffffffffffffffffffffffffffff168173ffffffffffffffffffffffffffffffffffffffff161415611837576040517f08c379a000000000000000000000000000000000000000000000000000000000815260040161182e90613df3565b60405180910390fd5b61184081611dbf565b50565b6000808273ffffffffffffffffffffffffffffffffffffffff163b119050919050565b505050565b60007f80ac58cd000000000000000000000000000000000000000000000000000000007bffffffffffffffffffffffffffffffffffffffffffffffffffffffff1916827bffffffffffffffffffffffffffffffffffffffffffffffffffffffff1916148061193657507f5b5e139f000000000000000000000000000000000000000000000000000000007bffffffffffffffffffffffffffffffffffffffffffffffffffffffff1916827bffffffffffffffffffffffffffffffffffffffffffffffffffffffff1916145b8061194657506119458261228c565b5b9050919050565b60008073ffffffffffffffffffffffffffffffffffffffff166002600084815260200190815260200160002060009054906101000a900473ffffffffffffffffffffffffffffffffffffffff1673ffffffffffffffffffffffffffffffffffffffff1614159050919050565b600033905090565b816004600083815260200190815260200160002060006101000a81548173ffffffffffffffffffffffffffffffffffffffff021916908373ffffffffffffffffffffffffffffffffffffffff160217905550808273ffffffffffffffffffffffffffffffffffffffff16611a3483610cb4565b73ffffffffffffffffffffffffffffffffffffffff167f8c5be1e5ebec7d5bd14f71427d1e84f3dd0314c0f7b2291e5b200ac8c7c3b92560405160405180910390a45050565b6000611a858261194d565b611ac4576040517f08c379a0000000000000000000000000000000000000000000000000000000008152600401611abb90613e85565b60405180910390fd5b6000611acf83610cb4565b90508073ffffffffffffffffffffffffffffffffffffffff168473ffffffffffffffffffffffffffffffffffffffff161480611b3e57508373ffffffffffffffffffffffffffffffffffffffff16611b2684610817565b73ffffffffffffffffffffffffffffffffffffffff16145b80611b4f5750611b4e8185611621565b5b91505092915050565b8273ffffffffffffffffffffffffffffffffffffffff16611b7882610cb4565b73ffffffffffffffffffffffffffffffffffffffff1614611bce576040517f08c379a0000000000000000000000000000000000000000000000000000000008152600401611bc590613f17565b60405180910390fd5b600073ffffffffffffffffffffffffffffffffffffffff168273ffffffffffffffffffffffffffffffffffffffff161415611c3e576040517f08c379a0000000000000000000000000000000000000000000000000000000008152600401611c3590613fa9565b60405180910390fd5b611c498383836122f6565b611c546000826119c1565b6001600360008573ffffffffffffffffffffffffffffffffffffffff1673ffffffffffffffffffffffffffffffffffffffff1681526020019081526020016000206000828254611ca49190613fc9565b925050819055506001600360008473ffffffffffffffffffffffffffffffffffffffff1673ffffffffffffffffffffffffffffffffffffffff1681526020019081526020016000206000828254611cfb9190613922565b92505081905550816002600083815260200190815260200160002060006101000a81548173ffffffffffffffffffffffffffffffffffffffff021916908373ffffffffffffffffffffffffffffffffffffffff160217905550808273ffffffffffffffffffffffffffffffffffffffff168473ffffffffffffffffffffffffffffffffffffffff167fddf252ad1be2c89b69c2b068fc378daa952ba7f163c4a11628f55a4df523b3ef60405160405180910390a4611dba83838361240a565b505050565b6000600a60009054906101000a900473ffffffffffffffffffffffffffffffffffffffff16905081600a60006101000a81548173ffffffffffffffffffffffffffffffffffffffff021916908373ffffffffffffffffffffffffffffffffffffffff1602179055508173ffffffffffffffffffffffffffffffffffffffff168173ffffffffffffffffffffffffffffffffffffffff167f8be0079c531659141344cd1fd0a4f28419497f9722a3daafe3b4186f6b6457e060405160405180910390a35050565b60005b81811015611ecc576000611e9a6109b4565b90506103e7611ea76109b4565b1015611eb857611eb7338261240f565b5b508080611ec490613ffd565b915050611e88565b5050565b8173ffffffffffffffffffffffffffffffffffffffff168373ffffffffffffffffffffffffffffffffffffffff161415611f3f576040517f08c379a0000000000000000000000000000000000000000000000000000000008152600401611f3690614092565b60405180910390fd5b80600560008573ffffffffffffffffffffffffffffffffffffffff1673ffffffffffffffffffffffffffffffffffffffff16815260200190815260200160002060008473ffffffffffffffffffffffffffffffffffffffff1673ffffffffffffffffffffffffffffffffffffffff16815260200190815260200160002060006101000a81548160ff0219169083151502179055508173ffffffffffffffffffffffffffffffffffffffff168373ffffffffffffffffffffffffffffffffffffffff167f17307eab39ab6107e8899845ad3d59bd9653f200f220920489ca2b5937696c31836040516120309190612c56565b60405180910390a3505050565b612048848484611b58565b6120548484848461242d565b612093576040517f08c379a000000000000000000000000000000000000000000000000000000000815260040161208a90614124565b60405180910390fd5b50505050565b6060601180546120a8906132be565b80601f01602080910402602001604051908101604052809291908181526020018280546120d4906132be565b80156121215780601f106120f657610100808354040283529160200191612121565b820191906000526020600020905b81548152906001019060200180831161210457829003601f168201915b5050505050905090565b60606000821415612173576040518060400160405280600181526020017f30000000000000000000000000000000000000000000000000000000000000008152509050612287565b600082905060005b600082146121a557808061218e90613ffd565b915050600a8261219e9190614173565b915061217b565b60008167ffffffffffffffff8111156121c1576121c0612ede565b5b6040519080825280601f01601f1916602001820160405280156121f35781602001600182028036833780820191505090505b5090505b600085146122805760018261220c9190613fc9565b9150600a8561221b91906141a4565b60306122279190613922565b60f81b81838151811061223d5761223c6136c8565b5b60200101907effffffffffffffffffffffffffffffffffffffffffffffffffffffffffffff1916908160001a905350600a856122799190614173565b94506121f7565b8093505050505b919050565b60007f01ffc9a7000000000000000000000000000000000000000000000000000000007bffffffffffffffffffffffffffffffffffffffffffffffffffffffff1916827bffffffffffffffffffffffffffffffffffffffffffffffffffffffff1916149050919050565b612301838383611866565b600073ffffffffffffffffffffffffffffffffffffffff168373ffffffffffffffffffffffffffffffffffffffff1614156123445761233f816125c4565b612383565b8173ffffffffffffffffffffffffffffffffffffffff168373ffffffffffffffffffffffffffffffffffffffff161461238257612381838261260d565b5b5b600073ffffffffffffffffffffffffffffffffffffffff168273ffffffffffffffffffffffffffffffffffffffff1614156123c6576123c18161277a565b612405565b8273ffffffffffffffffffffffffffffffffffffffff168273ffffffffffffffffffffffffffffffffffffffff161461240457612403828261284b565b5b5b505050565b505050565b6124298282604051806020016040528060008152506128ca565b5050565b600061244e8473ffffffffffffffffffffffffffffffffffffffff16611843565b156125b7578373ffffffffffffffffffffffffffffffffffffffff1663150b7a026124776119b9565b8786866040518563ffffffff1660e01b8152600401612499949392919061422a565b602060405180830381600087803b1580156124b357600080fd5b505af19250505080156124e457506040513d601f19601f820116820180604052508101906124e1919061428b565b60015b612567573d8060008114612514576040519150601f19603f3d011682016040523d82523d6000602084013e612519565b606091505b5060008151141561255f576040517f08c379a000000000000000000000000000000000000000000000000000000000815260040161255690614124565b60405180910390fd5b805181602001fd5b63150b7a0260e01b7bffffffffffffffffffffffffffffffffffffffffffffffffffffffff1916817bffffffffffffffffffffffffffffffffffffffffffffffffffffffff1916149150506125bc565b600190505b949350505050565b6008805490506009600083815260200190815260200160002081905550600881908060018154018082558091505060019003906000526020600020016000909190919091505550565b6000600161261a84610d66565b6126249190613fc9565b9050600060076000848152602001908152602001600020549050818114612709576000600660008673ffffffffffffffffffffffffffffffffffffffff1673ffffffffffffffffffffffffffffffffffffffff168152602001908152602001600020600084815260200190815260200160002054905080600660008773ffffffffffffffffffffffffffffffffffffffff1673ffffffffffffffffffffffffffffffffffffffff168152602001908152602001600020600084815260200190815260200160002081905550816007600083815260200190815260200160002081905550505b6007600084815260200190815260200160002060009055600660008573ffffffffffffffffffffffffffffffffffffffff1673ffffffffffffffffffffffffffffffffffffffff16815260200190815260200160002060008381526020019081526020016000206000905550505050565b6000600160088054905061278e9190613fc9565b90506000600960008481526020019081526020016000205490506000600883815481106127be576127bd6136c8565b5b9060005260206000200154905080600883815481106127e0576127df6136c8565b5b90600052602060002001819055508160096000838152602001908152602001600020819055506009600085815260200190815260200160002060009055600880548061282f5761282e6142b8565b5b6001900381819060005260206000200160009055905550505050565b600061285683610d66565b905081600660008573ffffffffffffffffffffffffffffffffffffffff1673ffffffffffffffffffffffffffffffffffffffff168152602001908152602001600020600083815260200190815260200160002081905550806007600084815260200190815260200160002081905550505050565b6128d48383612925565b6128e1600084848461242d565b612920576040517f08c379a000000000000000000000000000000000000000000000000000000000815260040161291790614124565b60405180910390fd5b505050565b600073ffffffffffffffffffffffffffffffffffffffff168273ffffffffffffffffffffffffffffffffffffffff161415612995576040517f08c379a000000000000000000000000000000000000000000000000000000000815260040161298c90614333565b60405180910390fd5b61299e8161194d565b156129de576040517f08c379a00000000000000000000000000000000000000000000000000000000081526004016129d59061439f565b60405180910390fd5b6129ea600083836122f6565b6001600360008473ffffffffffffffffffffffffffffffffffffffff1673ffffffffffffffffffffffffffffffffffffffff1681526020019081526020016000206000828254612a3a9190613922565b92505081905550816002600083815260200190815260200160002060006101000a81548173ffffffffffffffffffffffffffffffffffffffff021916908373ffffffffffffffffffffffffffffffffffffffff160217905550808273ffffffffffffffffffffffffffffffffffffffff16600073ffffffffffffffffffffffffffffffffffffffff167fddf252ad1be2c89b69c2b068fc378daa952ba7f163c4a11628f55a4df523b3ef60405160405180910390a4612afb6000838361240a565b5050565b828054612b0b906132be565b90600052602060002090601f016020900481019282612b2d5760008555612b74565b82601f10612b4657805160ff1916838001178555612b74565b82800160010185558215612b74579182015b82811115612b73578251825591602001919060010190612b58565b5b509050612b819190612b85565b5090565b5b80821115612b9e576000816000905550600101612b86565b5090565b6000604051905090565b600080fd5b600080fd5b60007fffffffff0000000000000000000000000000000000000000000000000000000082169050919050565b612beb81612bb6565b8114612bf657600080fd5b50565b600081359050612c0881612be2565b92915050565b600060208284031215612c2457612c23612bac565b5b6000612c3284828501612bf9565b91505092915050565b60008115159050919050565b612c5081612c3b565b82525050565b6000602082019050612c6b6000830184612c47565b92915050565b600081519050919050565b600082825260208201905092915050565b60005b83811015612cab578082015181840152602081019050612c90565b83811115612cba576000848401525b50505050565b6000601f19601f8301169050919050565b6000612cdc82612c71565b612ce68185612c7c565b9350612cf6818560208601612c8d565b612cff81612cc0565b840191505092915050565b60006020820190508181036000830152612d248184612cd1565b905092915050565b6000819050919050565b612d3f81612d2c565b8114612d4a57600080fd5b50565b600081359050612d5c81612d36565b92915050565b600060208284031215612d7857612d77612bac565b5b6000612d8684828501612d4d565b91505092915050565b600073ffffffffffffffffffffffffffffffffffffffff82169050919050565b6000612dba82612d8f565b9050919050565b612dca81612daf565b82525050565b6000602082019050612de56000830184612dc1565b92915050565b612df481612daf565b8114612dff57600080fd5b50565b600081359050612e1181612deb565b92915050565b60008060408385031215612e2e57612e2d612bac565b5b6000612e3c85828601612e02565b9250506020612e4d85828601612d4d565b9150509250929050565b612e6081612d2c565b82525050565b6000602082019050612e7b6000830184612e57565b92915050565b600080600060608486031215612e9a57612e99612bac565b5b6000612ea886828701612e02565b9350506020612eb986828701612e02565b9250506040612eca86828701612d4d565b9150509250925092565b600080fd5b600080fd5b7f4e487b7100000000000000000000000000000000000000000000000000000000600052604160045260246000fd5b612f1682612cc0565b810181811067ffffffffffffffff82111715612f3557612f34612ede565b5b80604052505050565b6000612f48612ba2565b9050612f548282612f0d565b919050565b600067ffffffffffffffff821115612f7457612f73612ede565b5b612f7d82612cc0565b9050602081019050919050565b82818337600083830152505050565b6000612fac612fa784612f59565b612f3e565b905082815260208101848484011115612fc857612fc7612ed9565b5b612fd3848285612f8a565b509392505050565b600082601f830112612ff057612fef612ed4565b5b8135613000848260208601612f99565b91505092915050565b60006020828403121561301f5761301e612bac565b5b600082013567ffffffffffffffff81111561303d5761303c612bb1565b5b61304984828501612fdb565b91505092915050565b60006020828403121561306857613067612bac565b5b600061307684828501612e02565b91505092915050565b6000806040838503121561309657613095612bac565b5b60006130a485828601612d4d565b92505060206130b585828601612d4d565b9150509250929050565b6130c881612c3b565b81146130d357600080fd5b50565b6000813590506130e5816130bf565b92915050565b6000806040838503121561310257613101612bac565b5b600061311085828601612e02565b9250506020613121858286016130d6565b9150509250929050565b600067ffffffffffffffff82111561314657613145612ede565b5b61314f82612cc0565b9050602081019050919050565b600061316f61316a8461312b565b612f3e565b90508281526020810184848401111561318b5761318a612ed9565b5b613196848285612f8a565b509392505050565b600082601f8301126131b3576131b2612ed4565b5b81356131c384826020860161315c565b91505092915050565b600080600080608085870312156131e6576131e5612bac565b5b60006131f487828801612e02565b945050602061320587828801612e02565b935050604061321687828801612d4d565b925050606085013567ffffffffffffffff81111561323757613236612bb1565b5b6132438782880161319e565b91505092959194509250565b6000806040838503121561326657613265612bac565b5b600061327485828601612e02565b925050602061328585828601612e02565b9150509250929050565b7f4e487b7100000000000000000000000000000000000000000000000000000000600052602260045260246000fd5b600060028204905060018216806132d657607f821691505b602082108114156132ea576132e961328f565b5b50919050565b7f4552433732313a20617070726f76656420717565727920666f72206e6f6e657860008201527f697374656e7420746f6b656e0000000000000000000000000000000000000000602082015250565b600061334c602c83612c7c565b9150613357826132f0565b604082019050919050565b6000602082019050818103600083015261337b8161333f565b9050919050565b7f4552433732313a20617070726f76616c20746f2063757272656e74206f776e6560008201527f7200000000000000000000000000000000000000000000000000000000000000602082015250565b60006133de602183612c7c565b91506133e982613382565b604082019050919050565b6000602082019050818103600083015261340d816133d1565b9050919050565b7f4552433732313a20617070726f76652063616c6c6572206973206e6f74206f7760008201527f6e6572206e6f7220617070726f76656420666f7220616c6c0000000000000000602082015250565b6000613470603883612c7c565b915061347b82613414565b604082019050919050565b6000602082019050818103600083015261349f81613463565b9050919050565b7f4552433732313a207472616e736665722063616c6c6572206973206e6f74206f60008201527f776e6572206e6f7220617070726f766564000000000000000000000000000000602082015250565b6000613502603183612c7c565b915061350d826134a6565b604082019050919050565b60006020820190508181036000830152613531816134f5565b9050919050565b7f455243373231456e756d657261626c653a206f776e657220696e646578206f7560008201527f74206f6620626f756e6473000000000000000000000000000000000000000000602082015250565b6000613594602b83612c7c565b915061359f82613538565b604082019050919050565b600060208201905081810360008301526135c381613587565b9050919050565b7f4f776e61626c653a2063616c6c6572206973206e6f7420746865206f776e6572600082015250565b6000613600602083612c7c565b915061360b826135ca565b602082019050919050565b6000602082019050818103600083015261362f816135f3565b9050919050565b7f455243373231456e756d657261626c653a20676c6f62616c20696e646578206f60008201527f7574206f6620626f756e64730000000000000000000000000000000000000000602082015250565b6000613692602c83612c7c565b915061369d82613636565b604082019050919050565b600060208201905081810360008301526136c181613685565b9050919050565b7f4e487b7100000000000000000000000000000000000000000000000000000000600052603260045260246000fd5b7f4552433732313a206f776e657220717565727920666f72206e6f6e657869737460008201527f656e7420746f6b656e0000000000000000000000000000000000000000000000602082015250565b6000613753602983612c7c565b915061375e826136f7565b604082019050919050565b6000602082019050818103600083015261378281613746565b9050919050565b7f4552433732313a2062616c616e636520717565727920666f7220746865207a6560008201527f726f206164647265737300000000000000000000000000000000000000000000602082015250565b60006137e5602a83612c7c565b91506137f082613789565b604082019050919050565b60006020820190508181036000830152613814816137d8565b9050919050565b7f5061757361626c653a2070617573656400000000000000000000000000000000600082015250565b6000613851601083612c7c565b915061385c8261381b565b602082019050919050565b6000602082019050818103600083015261388081613844565b9050919050565b7f4e6f7420696e20746865206d696e7420706572696f6420000000000000000000600082015250565b60006138bd601783612c7c565b91506138c882613887565b602082019050919050565b600060208201905081810360008301526138ec816138b0565b9050919050565b7f4e487b7100000000000000000000000000000000000000000000000000000000600052601160045260246000fd5b600061392d82612d2c565b915061393883612d2c565b9250827fffffffffffffffffffffffffffffffffffffffffffffffffffffffffffffffff0382111561396d5761396c6138f3565b5b828201905092915050565b7f416c72656164792061636869657665206d617820737570706c79000000000000600082015250565b60006139ae601a83612c7c565b91506139b982613978565b602082019050919050565b600060208201905081810360008301526139dd816139a1565b9050919050565b7f53616c65206d7573742062652061637469766520746f206d696e740000000000600082015250565b6000613a1a601b83612c7c565b9150613a25826139e4565b602082019050919050565b60006020820190508181036000830152613a4981613a0d565b9050919050565b7f557020746f206163636f756e74206d617820616d6f756e740000000000000000600082015250565b6000613a86601883612c7c565b9150613a9182613a50565b602082019050919050565b60006020820190508181036000830152613ab581613a79565b9050919050565b6000613ac782612d2c565b9150613ad283612d2c565b9250817fffffffffffffffffffffffffffffffffffffffffffffffffffffffffffffffff0483118215151615613b0b57613b0a6138f3565b5b828202905092915050565b7f4e6f7420656e6f75676820657468657220746f206d696e740000000000000000600082015250565b6000613b4c601883612c7c565b9150613b5782613b16565b602082019050919050565b60006020820190508181036000830152613b7b81613b3f565b9050919050565b7f4f766572206d6178206d696e74207065722074696d6500000000000000000000600082015250565b6000613bb8601683612c7c565b9150613bc382613b82565b602082019050919050565b60006020820190508181036000830152613be781613bab565b9050919050565b7f4552433732314d657461646174613a2055524920717565727920666f72206e6f60008201527f6e6578697374656e7420746f6b656e0000000000000000000000000000000000602082015250565b6000613c4a602f83612c7c565b9150613c5582613bee565b604082019050919050565b60006020820190508181036000830152613c7981613c3d565b9050919050565b600081905092915050565b6000613c9682612c71565b613ca08185613c80565b9350613cb0818560208601612c8d565b80840191505092915050565b60008190508160005260206000209050919050565b60008154613cde816132be565b613ce88186613c80565b94506001821660008114613d035760018114613d1457613d47565b60ff19831686528186019350613d47565b613d1d85613cbc565b60005b83811015613d3f57815481890152600182019150602081019050613d20565b838801955050505b50505092915050565b6000613d5c8286613c8b565b9150613d688285613c8b565b9150613d748284613cd1565b9150819050949350505050565b7f4f776e61626c653a206e6577206f776e657220697320746865207a65726f206160008201527f6464726573730000000000000000000000000000000000000000000000000000602082015250565b6000613ddd602683612c7c565b9150613de882613d81565b604082019050919050565b60006020820190508181036000830152613e0c81613dd0565b9050919050565b7f4552433732313a206f70657261746f7220717565727920666f72206e6f6e657860008201527f697374656e7420746f6b656e0000000000000000000000000000000000000000602082015250565b6000613e6f602c83612c7c565b9150613e7a82613e13565b604082019050919050565b60006020820190508181036000830152613e9e81613e62565b9050919050565b7f4552433732313a207472616e736665722066726f6d20696e636f72726563742060008201527f6f776e6572000000000000000000000000000000000000000000000000000000602082015250565b6000613f01602583612c7c565b9150613f0c82613ea5565b604082019050919050565b60006020820190508181036000830152613f3081613ef4565b9050919050565b7f4552433732313a207472616e7366657220746f20746865207a65726f2061646460008201527f7265737300000000000000000000000000000000000000000000000000000000602082015250565b6000613f93602483612c7c565b9150613f9e82613f37565b604082019050919050565b60006020820190508181036000830152613fc281613f86565b9050919050565b6000613fd482612d2c565b9150613fdf83612d2c565b925082821015613ff257613ff16138f3565b5b828203905092915050565b600061400882612d2c565b91507fffffffffffffffffffffffffffffffffffffffffffffffffffffffffffffffff82141561403b5761403a6138f3565b5b600182019050919050565b7f4552433732313a20617070726f766520746f2063616c6c657200000000000000600082015250565b600061407c601983612c7c565b915061408782614046565b602082019050919050565b600060208201905081810360008301526140ab8161406f565b9050919050565b7f4552433732313a207472616e7366657220746f206e6f6e20455243373231526560008201527f63656976657220696d706c656d656e7465720000000000000000000000000000602082015250565b600061410e603283612c7c565b9150614119826140b2565b604082019050919050565b6000602082019050818103600083015261413d81614101565b9050919050565b7f4e487b7100000000000000000000000000000000000000000000000000000000600052601260045260246000fd5b600061417e82612d2c565b915061418983612d2c565b92508261419957614198614144565b5b828204905092915050565b60006141af82612d2c565b91506141ba83612d2c565b9250826141ca576141c9614144565b5b828206905092915050565b600081519050919050565b600082825260208201905092915050565b60006141fc826141d5565b61420681856141e0565b9350614216818560208601612c8d565b61421f81612cc0565b840191505092915050565b600060808201905061423f6000830187612dc1565b61424c6020830186612dc1565b6142596040830185612e57565b818103606083015261426b81846141f1565b905095945050505050565b60008151905061428581612be2565b92915050565b6000602082840312156142a1576142a0612bac565b5b60006142af84828501614276565b91505092915050565b7f4e487b7100000000000000000000000000000000000000000000000000000000600052603160045260246000fd5b7f4552433732313a206d696e7420746f20746865207a65726f2061646472657373600082015250565b600061431d602083612c7c565b9150614328826142e7565b602082019050919050565b6000602082019050818103600083015261434c81614310565b9050919050565b7f4552433732313a20746f6b656e20616c7265616479206d696e74656400000000600082015250565b6000614389601c83612c7c565b915061439482614353565b602082019050919050565b600060208201905081810360008301526143b88161437c565b905091905056fea2646970667358221220beb986db86c0810876e86fda7c1dd0f6c87866063397ff17ba4b41a9c6cb296464736f6c63430008090033",
  "immutableReferences": {},
  "source": "// SPDX-License-Identifier: MIT\npragma solidity >=0.4.22 <0.9.0;\n\nimport \"@openzeppelin/contracts/token/ERC721/extensions/ERC721Enumerable.sol\";\nimport \"@openzeppelin/contracts/access/Ownable.sol\";\nimport \"@openzeppelin/contracts/security/Pausable.sol\";\n\ncontract NFT_template is ERC721Enumerable,Ownable,Pausable {\n    using Strings for uint256;\n\n    //period\n    uint256 start_time ; \n    uint256 end_time ;  \n\n    //active selling & reveal\n    bool _isSaleActive = false;\n    bool _revealed = false;\n\n    // Constants\n    uint256 constant MAX_SUPPLY = 999;\n    uint256 mintPrice = 0.01 ether;\n    uint256 accountMaxAmount = 1;\n    uint256 maxMinPerTime = 1;\n\n    string baseURI;\n    string notRevealedUri;\n    string baseExtension = \".json\";\n\n    constructor()ERC721(\"ZETA_Souvenir\", \"ZETA\"){\n        _mint(99);\n    }\n\n    //only owner\n    function flipSaleActive() external onlyOwner {\n        _isSaleActive = !_isSaleActive;\n    }\n\n    function flipReveal() external onlyOwner {\n        _revealed = !_revealed;\n    }\n\n    function setTime(uint _startTime , uint _endTime) external onlyOwner{\n        start_time = _startTime ; \n        end_time = _endTime ; \n    }\n\n\n    function tokenURI(uint256 tokenId) public view override returns (string memory) {\n        require(_exists(tokenId), \"ERC721Metadata: URI query for nonexistent token\");\n\n        if (_revealed == false) {\n            return notRevealedUri;\n        }\n        \n        string memory base_URI = _baseURI();\n        return bytes(baseURI).length > 0 ? string(abi.encodePacked(base_URI, tokenId.toString(),baseExtension)) : \"\";\n    }\n\n    function _baseURI() internal view override returns (string memory) {\n        return baseURI;\n    }\n\n    function setBaseURI(string memory _newBaseURI) external onlyOwner {\n        baseURI = _newBaseURI;\n    }\n\n    function setNotRevealedURI(string memory _notRevealedURI) public onlyOwner {\n        notRevealedUri = _notRevealedURI;\n    }\n    function setBaseExtension(string memory _newBaseExtension)\n        public\n        onlyOwner\n    {\n        baseExtension = _newBaseExtension;\n    }\n\n    function mint(uint256 tokenQuantity) external payable whenNotPaused{\n        require(block.timestamp >= start_time && block.timestamp <= end_time , \"Not in the mint period \");\n        require(\n            totalSupply() + tokenQuantity <= MAX_SUPPLY,\n            \"Already achieve max supply\"\n        );\n        require(_isSaleActive, \"Sale must be active to mint\");\n        require(\n            balanceOf(msg.sender) + tokenQuantity <= accountMaxAmount,\n            \"Up to account max amount\"\n        );\n        require(\n            tokenQuantity * mintPrice <= msg.value,\n            \"Not enough ether to mint\"\n        );\n        require(tokenQuantity <= maxMinPerTime, \"Over max mint per time\");\n\n        _mint(tokenQuantity);\n    }\n\n    function _mint(uint256 tokenQuantity) internal {\n        for (uint256 i = 0; i < tokenQuantity; i++) {\n            uint256 mintIndex = totalSupply();\n            if (totalSupply() < MAX_SUPPLY) {\n                _safeMint(msg.sender, mintIndex);\n            }\n        }\n    }\n\n    function withdrawBalance(uint256 amount) external onlyOwner{\n        address owner = owner();\n        payable(owner).transfer(amount);\n    }\n\n    function checkBalance() external view returns(uint) {\n        return address(this).balance;\n    }\n\n    function getTime() external view returns(uint){\n        return block.timestamp ; \n    }\n}\n",
  "sourcePath": "/Users/Brian/www/blockchain/solidity_NFT/contracts/NFT_template.sol",
  "compiler": {
    "name": "solc",
    "version": "0.8.9+commit.e5eed63a.Emscripten.clang"
  },
  "schemaVersion": "3.4.3",
  "updatedAt": "2022-04-13T04:56:56.024Z",
  "devdoc": {
    "kind": "dev",
    "methods": {
      "approve(address,uint256)": {
        "details": "See {IERC721-approve}."
      },
      "balanceOf(address)": {
        "details": "See {IERC721-balanceOf}."
      },
      "getApproved(uint256)": {
        "details": "See {IERC721-getApproved}."
      },
      "isApprovedForAll(address,address)": {
        "details": "See {IERC721-isApprovedForAll}."
      },
      "name()": {
        "details": "See {IERC721Metadata-name}."
      },
      "owner()": {
        "details": "Returns the address of the current owner."
      },
      "ownerOf(uint256)": {
        "details": "See {IERC721-ownerOf}."
      },
      "paused()": {
        "details": "Returns true if the contract is paused, and false otherwise."
      },
      "renounceOwnership()": {
        "details": "Leaves the contract without owner. It will not be possible to call `onlyOwner` functions anymore. Can only be called by the current owner. NOTE: Renouncing ownership will leave the contract without an owner, thereby removing any functionality that is only available to the owner."
      },
      "safeTransferFrom(address,address,uint256)": {
        "details": "See {IERC721-safeTransferFrom}."
      },
      "safeTransferFrom(address,address,uint256,bytes)": {
        "details": "See {IERC721-safeTransferFrom}."
      },
      "setApprovalForAll(address,bool)": {
        "details": "See {IERC721-setApprovalForAll}."
      },
      "supportsInterface(bytes4)": {
        "details": "See {IERC165-supportsInterface}."
      },
      "symbol()": {
        "details": "See {IERC721Metadata-symbol}."
      },
      "tokenByIndex(uint256)": {
        "details": "See {IERC721Enumerable-tokenByIndex}."
      },
      "tokenOfOwnerByIndex(address,uint256)": {
        "details": "See {IERC721Enumerable-tokenOfOwnerByIndex}."
      },
      "tokenURI(uint256)": {
        "details": "See {IERC721Metadata-tokenURI}."
      },
      "totalSupply()": {
        "details": "See {IERC721Enumerable-totalSupply}."
      },
      "transferFrom(address,address,uint256)": {
        "details": "See {IERC721-transferFrom}."
      },
      "transferOwnership(address)": {
        "details": "Transfers ownership of the contract to a new account (`newOwner`). Can only be called by the current owner."
      }
    },
    "version": 1
  },
  "userdoc": {
    "kind": "user",
    "methods": {},
    "version": 1
  }
}