{
  "contractName": "Zeta",
  "abi": [
    {
      "inputs": [],
      "stateMutability": "nonpayable",
      "type": "constructor"
    },
    {
      "anonymous": false,
      "inputs": [
        {
          "indexed": true,
          "internalType": "address",
          "name": "owner",
          "type": "address"
        },
        {
          "indexed": true,
          "internalType": "address",
          "name": "approved",
          "type": "address"
        },
        {
          "indexed": true,
          "internalType": "uint256",
          "name": "tokenId",
          "type": "uint256"
        }
      ],
      "name": "Approval",
      "type": "event"
    },
    {
      "anonymous": false,
      "inputs": [
        {
          "indexed": true,
          "internalType": "address",
          "name": "owner",
          "type": "address"
        },
        {
          "indexed": true,
          "internalType": "address",
          "name": "operator",
          "type": "address"
        },
        {
          "indexed": false,
          "internalType": "bool",
          "name": "approved",
          "type": "bool"
        }
      ],
      "name": "ApprovalForAll",
      "type": "event"
    },
    {
      "anonymous": false,
      "inputs": [
        {
          "indexed": true,
          "internalType": "address",
          "name": "previousOwner",
          "type": "address"
        },
        {
          "indexed": true,
          "internalType": "address",
          "name": "newOwner",
          "type": "address"
        }
      ],
      "name": "OwnershipTransferred",
      "type": "event"
    },
    {
      "anonymous": false,
      "inputs": [
        {
          "indexed": false,
          "internalType": "address",
          "name": "account",
          "type": "address"
        }
      ],
      "name": "Paused",
      "type": "event"
    },
    {
      "anonymous": false,
      "inputs": [
        {
          "indexed": true,
          "internalType": "address",
          "name": "from",
          "type": "address"
        },
        {
          "indexed": true,
          "internalType": "address",
          "name": "to",
          "type": "address"
        },
        {
          "indexed": true,
          "internalType": "uint256",
          "name": "tokenId",
          "type": "uint256"
        }
      ],
      "name": "Transfer",
      "type": "event"
    },
    {
      "anonymous": false,
      "inputs": [
        {
          "indexed": false,
          "internalType": "address",
          "name": "account",
          "type": "address"
        }
      ],
      "name": "Unpaused",
      "type": "event"
    },
    {
      "inputs": [
        {
          "internalType": "address",
          "name": "to",
          "type": "address"
        },
        {
          "internalType": "uint256",
          "name": "tokenId",
          "type": "uint256"
        }
      ],
      "name": "approve",
      "outputs": [],
      "stateMutability": "nonpayable",
      "type": "function"
    },
    {
      "inputs": [
        {
          "internalType": "address",
          "name": "owner",
          "type": "address"
        }
      ],
      "name": "balanceOf",
      "outputs": [
        {
          "internalType": "uint256",
          "name": "",
          "type": "uint256"
        }
      ],
      "stateMutability": "view",
      "type": "function",
      "constant": true
    },
    {
      "inputs": [
        {
          "internalType": "uint256",
          "name": "tokenId",
          "type": "uint256"
        }
      ],
      "name": "getApproved",
      "outputs": [
        {
          "internalType": "address",
          "name": "",
          "type": "address"
        }
      ],
      "stateMutability": "view",
      "type": "function",
      "constant": true
    },
    {
      "inputs": [
        {
          "internalType": "address",
          "name": "owner",
          "type": "address"
        },
        {
          "internalType": "address",
          "name": "operator",
          "type": "address"
        }
      ],
      "name": "isApprovedForAll",
      "outputs": [
        {
          "internalType": "bool",
          "name": "",
          "type": "bool"
        }
      ],
      "stateMutability": "view",
      "type": "function",
      "constant": true
    },
    {
      "inputs": [],
      "name": "name",
      "outputs": [
        {
          "internalType": "string",
          "name": "",
          "type": "string"
        }
      ],
      "stateMutability": "view",
      "type": "function",
      "constant": true
    },
    {
      "inputs": [],
      "name": "owner",
      "outputs": [
        {
          "internalType": "address",
          "name": "",
          "type": "address"
        }
      ],
      "stateMutability": "view",
      "type": "function",
      "constant": true
    },
    {
      "inputs": [
        {
          "internalType": "uint256",
          "name": "tokenId",
          "type": "uint256"
        }
      ],
      "name": "ownerOf",
      "outputs": [
        {
          "internalType": "address",
          "name": "",
          "type": "address"
        }
      ],
      "stateMutability": "view",
      "type": "function",
      "constant": true
    },
    {
      "inputs": [],
      "name": "paused",
      "outputs": [
        {
          "internalType": "bool",
          "name": "",
          "type": "bool"
        }
      ],
      "stateMutability": "view",
      "type": "function",
      "constant": true
    },
    {
      "inputs": [],
      "name": "renounceOwnership",
      "outputs": [],
      "stateMutability": "nonpayable",
      "type": "function"
    },
    {
      "inputs": [
        {
          "internalType": "address",
          "name": "from",
          "type": "address"
        },
        {
          "internalType": "address",
          "name": "to",
          "type": "address"
        },
        {
          "internalType": "uint256",
          "name": "tokenId",
          "type": "uint256"
        }
      ],
      "name": "safeTransferFrom",
      "outputs": [],
      "stateMutability": "nonpayable",
      "type": "function"
    },
    {
      "inputs": [
        {
          "internalType": "address",
          "name": "from",
          "type": "address"
        },
        {
          "internalType": "address",
          "name": "to",
          "type": "address"
        },
        {
          "internalType": "uint256",
          "name": "tokenId",
          "type": "uint256"
        },
        {
          "internalType": "bytes",
          "name": "_data",
          "type": "bytes"
        }
      ],
      "name": "safeTransferFrom",
      "outputs": [],
      "stateMutability": "nonpayable",
      "type": "function"
    },
    {
      "inputs": [
        {
          "internalType": "address",
          "name": "operator",
          "type": "address"
        },
        {
          "internalType": "bool",
          "name": "approved",
          "type": "bool"
        }
      ],
      "name": "setApprovalForAll",
      "outputs": [],
      "stateMutability": "nonpayable",
      "type": "function"
    },
    {
      "inputs": [
        {
          "internalType": "bytes4",
          "name": "interfaceId",
          "type": "bytes4"
        }
      ],
      "name": "supportsInterface",
      "outputs": [
        {
          "internalType": "bool",
          "name": "",
          "type": "bool"
        }
      ],
      "stateMutability": "view",
      "type": "function",
      "constant": true
    },
    {
      "inputs": [],
      "name": "symbol",
      "outputs": [
        {
          "internalType": "string",
          "name": "",
          "type": "string"
        }
      ],
      "stateMutability": "view",
      "type": "function",
      "constant": true
    },
    {
      "inputs": [
        {
          "internalType": "uint256",
          "name": "index",
          "type": "uint256"
        }
      ],
      "name": "tokenByIndex",
      "outputs": [
        {
          "internalType": "uint256",
          "name": "",
          "type": "uint256"
        }
      ],
      "stateMutability": "view",
      "type": "function",
      "constant": true
    },
    {
      "inputs": [
        {
          "internalType": "address",
          "name": "owner",
          "type": "address"
        },
        {
          "internalType": "uint256",
          "name": "index",
          "type": "uint256"
        }
      ],
      "name": "tokenOfOwnerByIndex",
      "outputs": [
        {
          "internalType": "uint256",
          "name": "",
          "type": "uint256"
        }
      ],
      "stateMutability": "view",
      "type": "function",
      "constant": true
    },
    {
      "inputs": [],
      "name": "totalSupply",
      "outputs": [
        {
          "internalType": "uint256",
          "name": "",
          "type": "uint256"
        }
      ],
      "stateMutability": "view",
      "type": "function",
      "constant": true
    },
    {
      "inputs": [
        {
          "internalType": "address",
          "name": "from",
          "type": "address"
        },
        {
          "internalType": "address",
          "name": "to",
          "type": "address"
        },
        {
          "internalType": "uint256",
          "name": "tokenId",
          "type": "uint256"
        }
      ],
      "name": "transferFrom",
      "outputs": [],
      "stateMutability": "nonpayable",
      "type": "function"
    },
    {
      "inputs": [
        {
          "internalType": "address",
          "name": "newOwner",
          "type": "address"
        }
      ],
      "name": "transferOwnership",
      "outputs": [],
      "stateMutability": "nonpayable",
      "type": "function"
    },
    {
      "inputs": [],
      "name": "flipSaleActive",
      "outputs": [],
      "stateMutability": "nonpayable",
      "type": "function"
    },
    {
      "inputs": [
        {
          "internalType": "uint256",
          "name": "_startTime",
          "type": "uint256"
        },
        {
          "internalType": "uint256",
          "name": "_endTime",
          "type": "uint256"
        }
      ],
      "name": "setTime",
      "outputs": [],
      "stateMutability": "nonpayable",
      "type": "function"
    },
    {
      "inputs": [
        {
          "internalType": "uint256",
          "name": "tokenId",
          "type": "uint256"
        }
      ],
      "name": "tokenURI",
      "outputs": [
        {
          "internalType": "string",
          "name": "",
          "type": "string"
        }
      ],
      "stateMutability": "view",
      "type": "function",
      "constant": true
    },
    {
      "inputs": [
        {
          "internalType": "string",
          "name": "_newBaseURI",
          "type": "string"
        }
      ],
      "name": "setBaseURI",
      "outputs": [],
      "stateMutability": "nonpayable",
      "type": "function"
    },
    {
      "inputs": [
        {
          "internalType": "uint256",
          "name": "tokenQuantity",
          "type": "uint256"
        }
      ],
      "name": "mint",
      "outputs": [],
      "stateMutability": "payable",
      "type": "function",
      "payable": true
    },
    {
      "inputs": [
        {
          "internalType": "uint256",
          "name": "_uint",
          "type": "uint256"
        }
      ],
      "name": "init_mint",
      "outputs": [],
      "stateMutability": "nonpayable",
      "type": "function"
    },
    {
      "inputs": [
        {
          "internalType": "uint256",
          "name": "amount",
          "type": "uint256"
        }
      ],
      "name": "withdrawBalance",
      "outputs": [],
      "stateMutability": "nonpayable",
      "type": "function"
    },
    {
      "inputs": [],
      "name": "checkBalance",
      "outputs": [
        {
          "internalType": "uint256",
          "name": "",
          "type": "uint256"
        }
      ],
      "stateMutability": "view",
      "type": "function",
      "constant": true
    },
    {
      "inputs": [],
      "name": "getTime",
      "outputs": [
        {
          "internalType": "uint256",
          "name": "",
          "type": "uint256"
        }
      ],
      "stateMutability": "view",
      "type": "function",
      "constant": true
    }
  ],
  "bytecode": "0x600d805460ff1916905566038d7ea4c68000600e5560c06040526005608081905264173539b7b760d91b60a09081526200003d916011919062000822565b503480156200004b57600080fd5b50604080518082018252600d81526c2d22aa20afa9b7babb32b734b960991b6020808301918252835180850190945260048452635a45544160e01b9084015281519192916200009d9160009162000822565b508051620000b390600190602084019062000822565b505050620000d0620000ca620000ef60201b60201c565b620000f3565b600a805460ff60a01b19169055620000e9602862000145565b62000a48565b3390565b600a80546001600160a01b038381166001600160a01b0319831681179093556040519116919082907f8be0079c531659141344cd1fd0a4f28419497f9722a3daafe3b4186f6b6457e090600090a35050565b60005b81811015620001955760006200015d60085490565b90506103e76200016c60085490565b10156200017f576200017f338262000199565b50806200018c81620008de565b91505062000148565b5050565b62000195828260405180602001604052806000815250620001bb60201b60201c565b620001c7838362000237565b620001d660008484846200038d565b620002325760405162461bcd60e51b8152602060048201526032602482015260008051602062002bd183398151915260448201527131b2b4bb32b91034b6b83632b6b2b73a32b960711b60648201526084015b60405180910390fd5b505050565b6001600160a01b0382166200028f5760405162461bcd60e51b815260206004820181905260248201527f4552433732313a206d696e7420746f20746865207a65726f2061646472657373604482015260640162000229565b6000818152600260205260409020546001600160a01b031615620002f65760405162461bcd60e51b815260206004820152601c60248201527f4552433732313a20746f6b656e20616c7265616479206d696e74656400000000604482015260640162000229565b6200030460008383620004f6565b6001600160a01b03821660009081526003602052604081208054600192906200032f908490620008fc565b909155505060008181526002602052604080822080546001600160a01b0319166001600160a01b03861690811790915590518392907fddf252ad1be2c89b69c2b068fc378daa952ba7f163c4a11628f55a4df523b3ef908290a45050565b6000620003ae846001600160a01b0316620005d260201b62000f571760201c565b15620004ea57604051630a85bd0160e11b81526001600160a01b0385169063150b7a0290620003e890339089908890889060040162000917565b602060405180830381600087803b1580156200040357600080fd5b505af192505050801562000436575060408051601f3d908101601f19168201909252620004339181019062000992565b60015b620004cf573d80801562000467576040519150601f19603f3d011682016040523d82523d6000602084013e6200046c565b606091505b508051620004c75760405162461bcd60e51b8152602060048201526032602482015260008051602062002bd183398151915260448201527131b2b4bb32b91034b6b83632b6b2b73a32b960711b606482015260840162000229565b805181602001fd5b6001600160e01b031916630a85bd0160e11b149050620004ee565b5060015b949350505050565b6200050e8383836200023260201b620007b21760201c565b6001600160a01b0383166200056c576200056681600880546000838152600960205260408120829055600182018355919091527ff3f7a9fe364faab93b216da50a3214154f22a0a2b415b23a84c8169e8b636ee30155565b62000592565b816001600160a01b0316836001600160a01b0316146200059257620005928382620005e1565b6001600160a01b038216620005ac5762000232816200068e565b826001600160a01b0316826001600160a01b031614620002325762000232828262000748565b6001600160a01b03163b151590565b60006001620005fb846200079960201b62000a1a1760201c565b620006079190620009c5565b6000838152600760205260409020549091508082146200065b576001600160a01b03841660009081526006602090815260408083208584528252808320548484528184208190558352600790915290208190555b5060009182526007602090815260408084208490556001600160a01b039094168352600681528383209183525290812055565b600854600090620006a290600190620009c5565b60008381526009602052604081205460088054939450909284908110620006cd57620006cd620009df565b906000526020600020015490508060088381548110620006f157620006f1620009df565b60009182526020808320909101929092558281526009909152604080822084905585825281205560088054806200072c576200072c620009f5565b6001900381819060005260206000200160009055905550505050565b600062000760836200079960201b62000a1a1760201c565b6001600160a01b039093166000908152600660209081526040808320868452825280832085905593825260079052919091209190915550565b60006001600160a01b038216620008065760405162461bcd60e51b815260206004820152602a60248201527f4552433732313a2062616c616e636520717565727920666f7220746865207a65604482015269726f206164647265737360b01b606482015260840162000229565b506001600160a01b031660009081526003602052604090205490565b828054620008309062000a0b565b90600052602060002090601f0160209004810192826200085457600085556200089f565b82601f106200086f57805160ff19168380011785556200089f565b828001600101855582156200089f579182015b828111156200089f57825182559160200191906001019062000882565b50620008ad929150620008b1565b5090565b5b80821115620008ad5760008155600101620008b2565b634e487b7160e01b600052601160045260246000fd5b6000600019821415620008f557620008f5620008c8565b5060010190565b60008219821115620009125762000912620008c8565b500190565b600060018060a01b038087168352602081871681850152856040850152608060608501528451915081608085015260005b82811015620009665785810182015185820160a00152810162000948565b828111156200097957600060a084870101525b5050601f01601f19169190910160a00195945050505050565b600060208284031215620009a557600080fd5b81516001600160e01b031981168114620009be57600080fd5b9392505050565b600082821015620009da57620009da620008c8565b500390565b634e487b7160e01b600052603260045260246000fd5b634e487b7160e01b600052603160045260246000fd5b600181811c9082168062000a2057607f821691505b6020821081141562000a4257634e487b7160e01b600052602260045260246000fd5b50919050565b6121798062000a586000396000f3fe6080604052600436106101b75760003560e01c806370a08231116100ec578063b88d4fde1161008a578063da76d5cd11610064578063da76d5cd146104ac578063de8b51e1146104cc578063e985e9c5146104e1578063f2fde38b1461052a57600080fd5b8063b88d4fde14610459578063c71daccb14610479578063c87b56dd1461048c57600080fd5b806395d89b41116100c657806395d89b41146103f1578063a0355eca14610406578063a0712d6814610426578063a22cb4651461043957600080fd5b806370a082311461039e578063715018a6146103be5780638da5cb5b146103d357600080fd5b80632f745c5911610159578063557ed1ba11610133578063557ed1ba1461032c57806355f804b31461033f5780635c975abb1461035f5780636352211e1461037e57600080fd5b80632f745c59146102cc57806342842e0e146102ec5780634f6ccce71461030c57600080fd5b8063095ea7b311610195578063095ea7b31461024b5780630c000a171461026d57806318160ddd1461028d57806323b872dd146102ac57600080fd5b806301ffc9a7146101bc57806306fdde03146101f1578063081812fc14610213575b600080fd5b3480156101c857600080fd5b506101dc6101d7366004611b09565b61054a565b60405190151581526020015b60405180910390f35b3480156101fd57600080fd5b50610206610575565b6040516101e89190611b7e565b34801561021f57600080fd5b5061023361022e366004611b91565b610607565b6040516001600160a01b0390911681526020016101e8565b34801561025757600080fd5b5061026b610266366004611bc6565b6106a1565b005b34801561027957600080fd5b5061026b610288366004611b91565b6107b7565b34801561029957600080fd5b506008545b6040519081526020016101e8565b3480156102b857600080fd5b5061026b6102c7366004611bf0565b6107ed565b3480156102d857600080fd5b5061029e6102e7366004611bc6565b61081e565b3480156102f857600080fd5b5061026b610307366004611bf0565b6108b4565b34801561031857600080fd5b5061029e610327366004611b91565b6108cf565b34801561033857600080fd5b504261029e565b34801561034b57600080fd5b5061026b61035a366004611cb8565b610962565b34801561036b57600080fd5b50600a54600160a01b900460ff166101dc565b34801561038a57600080fd5b50610233610399366004611b91565b6109a3565b3480156103aa57600080fd5b5061029e6103b9366004611d01565b610a1a565b3480156103ca57600080fd5b5061026b610aa1565b3480156103df57600080fd5b50600a546001600160a01b0316610233565b3480156103fd57600080fd5b50610206610ad7565b34801561041257600080fd5b5061026b610421366004611d1c565b610ae6565b61026b610434366004611b91565b610b1b565b34801561044557600080fd5b5061026b610454366004611d3e565b610cdc565b34801561046557600080fd5b5061026b610474366004611d7a565b610ce7565b34801561048557600080fd5b504761029e565b34801561049857600080fd5b506102066104a7366004611b91565b610d1f565b3480156104b857600080fd5b5061026b6104c7366004611b91565b610e0a565b3480156104d857600080fd5b5061026b610e81565b3480156104ed57600080fd5b506101dc6104fc366004611df6565b6001600160a01b03918216600090815260056020908152604080832093909416825291909152205460ff1690565b34801561053657600080fd5b5061026b610545366004611d01565b610ebf565b60006001600160e01b0319821663780e9d6360e01b148061056f575061056f82610f66565b92915050565b60606000805461058490611e29565b80601f01602080910402602001604051908101604052809291908181526020018280546105b090611e29565b80156105fd5780601f106105d2576101008083540402835291602001916105fd565b820191906000526020600020905b8154815290600101906020018083116105e057829003601f168201915b5050505050905090565b6000818152600260205260408120546001600160a01b03166106855760405162461bcd60e51b815260206004820152602c60248201527f4552433732313a20617070726f76656420717565727920666f72206e6f6e657860448201526b34b9ba32b73a103a37b5b2b760a11b60648201526084015b60405180910390fd5b506000908152600460205260409020546001600160a01b031690565b60006106ac826109a3565b9050806001600160a01b0316836001600160a01b0316141561071a5760405162461bcd60e51b815260206004820152602160248201527f4552433732313a20617070726f76616c20746f2063757272656e74206f776e656044820152603960f91b606482015260840161067c565b336001600160a01b0382161480610736575061073681336104fc565b6107a85760405162461bcd60e51b815260206004820152603860248201527f4552433732313a20617070726f76652063616c6c6572206973206e6f74206f7760448201527f6e6572206e6f7220617070726f76656420666f7220616c6c0000000000000000606482015260840161067c565b6107b28383610fb6565b505050565b600a546001600160a01b031633146107e15760405162461bcd60e51b815260040161067c90611e64565b6107ea81611024565b50565b6107f7338261106b565b6108135760405162461bcd60e51b815260040161067c90611e99565b6107b2838383611162565b600061082983610a1a565b821061088b5760405162461bcd60e51b815260206004820152602b60248201527f455243373231456e756d657261626c653a206f776e657220696e646578206f7560448201526a74206f6620626f756e647360a81b606482015260840161067c565b506001600160a01b03919091166000908152600660209081526040808320938352929052205490565b6107b283838360405180602001604052806000815250610ce7565b60006108da60085490565b821061093d5760405162461bcd60e51b815260206004820152602c60248201527f455243373231456e756d657261626c653a20676c6f62616c20696e646578206f60448201526b7574206f6620626f756e647360a01b606482015260840161067c565b6008828154811061095057610950611eea565b90600052602060002001549050919050565b600a546001600160a01b0316331461098c5760405162461bcd60e51b815260040161067c90611e64565b805161099f90600f906020840190611a5a565b5050565b6000818152600260205260408120546001600160a01b03168061056f5760405162461bcd60e51b815260206004820152602960248201527f4552433732313a206f776e657220717565727920666f72206e6f6e657869737460448201526832b73a103a37b5b2b760b91b606482015260840161067c565b60006001600160a01b038216610a855760405162461bcd60e51b815260206004820152602a60248201527f4552433732313a2062616c616e636520717565727920666f7220746865207a65604482015269726f206164647265737360b01b606482015260840161067c565b506001600160a01b031660009081526003602052604090205490565b600a546001600160a01b03163314610acb5760405162461bcd60e51b815260040161067c90611e64565b610ad56000611309565b565b60606001805461058490611e29565b600a546001600160a01b03163314610b105760405162461bcd60e51b815260040161067c90611e64565b600b91909155600c55565b600a54600160a01b900460ff1615610b685760405162461bcd60e51b815260206004820152601060248201526f14185d5cd8589b194e881c185d5cd95960821b604482015260640161067c565b600b544210158015610b7c5750600c544211155b610bc85760405162461bcd60e51b815260206004820152601760248201527f4e6f7420696e20746865206d696e7420706572696f6420000000000000000000604482015260640161067c565b6103e781610bd560085490565b610bdf9190611f16565b1115610c2d5760405162461bcd60e51b815260206004820152601a60248201527f416c72656164792061636869657665206d617820737570706c79000000000000604482015260640161067c565b600d5460ff16610c7f5760405162461bcd60e51b815260206004820152601b60248201527f53616c65206d7573742062652061637469766520746f206d696e740000000000604482015260640161067c565b34600e5482610c8e9190611f2e565b11156107e15760405162461bcd60e51b815260206004820152601860248201527f4e6f7420656e6f75676820657468657220746f206d696e740000000000000000604482015260640161067c565b61099f33838361135b565b610cf1338361106b565b610d0d5760405162461bcd60e51b815260040161067c90611e99565b610d198484848461142a565b50505050565b6000818152600260205260409020546060906001600160a01b0316610d9e5760405162461bcd60e51b815260206004820152602f60248201527f4552433732314d657461646174613a2055524920717565727920666f72206e6f60448201526e3732bc34b9ba32b73a103a37b5b2b760891b606482015260840161067c565b6000610da861145d565b90506000600f8054610db990611e29565b905011610dd55760405180602001604052806000815250610e03565b80610ddf8461146c565b6011604051602001610df393929190611f4d565b6040516020818303038152906040525b9392505050565b600a546001600160a01b03163314610e345760405162461bcd60e51b815260040161067c90611e64565b6000610e48600a546001600160a01b031690565b6040519091506001600160a01b0382169083156108fc029084906000818181858888f193505050501580156107b2573d6000803e3d6000fd5b600a546001600160a01b03163314610eab5760405162461bcd60e51b815260040161067c90611e64565b600d805460ff19811660ff90911615179055565b600a546001600160a01b03163314610ee95760405162461bcd60e51b815260040161067c90611e64565b6001600160a01b038116610f4e5760405162461bcd60e51b815260206004820152602660248201527f4f776e61626c653a206e6577206f776e657220697320746865207a65726f206160448201526564647265737360d01b606482015260840161067c565b6107ea81611309565b6001600160a01b03163b151590565b60006001600160e01b031982166380ac58cd60e01b1480610f9757506001600160e01b03198216635b5e139f60e01b145b8061056f57506301ffc9a760e01b6001600160e01b031983161461056f565b600081815260046020526040902080546001600160a01b0319166001600160a01b0384169081179091558190610feb826109a3565b6001600160a01b03167f8c5be1e5ebec7d5bd14f71427d1e84f3dd0314c0f7b2291e5b200ac8c7c3b92560405160405180910390a45050565b60005b8181101561099f57600061103a60085490565b90506103e761104860085490565b101561105857611058338261156a565b508061106381612011565b915050611027565b6000818152600260205260408120546001600160a01b03166110e45760405162461bcd60e51b815260206004820152602c60248201527f4552433732313a206f70657261746f7220717565727920666f72206e6f6e657860448201526b34b9ba32b73a103a37b5b2b760a11b606482015260840161067c565b60006110ef836109a3565b9050806001600160a01b0316846001600160a01b0316148061112a5750836001600160a01b031661111f84610607565b6001600160a01b0316145b8061115a57506001600160a01b0380821660009081526005602090815260408083209388168352929052205460ff165b949350505050565b826001600160a01b0316611175826109a3565b6001600160a01b0316146111d95760405162461bcd60e51b815260206004820152602560248201527f4552433732313a207472616e736665722066726f6d20696e636f72726563742060448201526437bbb732b960d91b606482015260840161067c565b6001600160a01b03821661123b5760405162461bcd60e51b8152602060048201526024808201527f4552433732313a207472616e7366657220746f20746865207a65726f206164646044820152637265737360e01b606482015260840161067c565b611246838383611584565b611251600082610fb6565b6001600160a01b038316600090815260036020526040812080546001929061127a90849061202c565b90915550506001600160a01b03821660009081526003602052604081208054600192906112a8908490611f16565b909155505060008181526002602052604080822080546001600160a01b0319166001600160a01b0386811691821790925591518493918716917fddf252ad1be2c89b69c2b068fc378daa952ba7f163c4a11628f55a4df523b3ef91a4505050565b600a80546001600160a01b038381166001600160a01b0319831681179093556040519116919082907f8be0079c531659141344cd1fd0a4f28419497f9722a3daafe3b4186f6b6457e090600090a35050565b816001600160a01b0316836001600160a01b031614156113bd5760405162461bcd60e51b815260206004820152601960248201527f4552433732313a20617070726f766520746f2063616c6c657200000000000000604482015260640161067c565b6001600160a01b03838116600081815260056020908152604080832094871680845294825291829020805460ff191686151590811790915591519182527f17307eab39ab6107e8899845ad3d59bd9653f200f220920489ca2b5937696c31910160405180910390a3505050565b611435848484611162565b6114418484848461163c565b610d195760405162461bcd60e51b815260040161067c90612043565b6060600f805461058490611e29565b6060816114905750506040805180820190915260018152600360fc1b602082015290565b8160005b81156114ba57806114a481612011565b91506114b39050600a836120ab565b9150611494565b60008167ffffffffffffffff8111156114d5576114d5611c2c565b6040519080825280601f01601f1916602001820160405280156114ff576020820181803683370190505b5090505b841561115a5761151460018361202c565b9150611521600a866120bf565b61152c906030611f16565b60f81b81838151811061154157611541611eea565b60200101906001600160f81b031916908160001a905350611563600a866120ab565b9450611503565b61099f828260405180602001604052806000815250611749565b6001600160a01b0383166115df576115da81600880546000838152600960205260408120829055600182018355919091527ff3f7a9fe364faab93b216da50a3214154f22a0a2b415b23a84c8169e8b636ee30155565b611602565b816001600160a01b0316836001600160a01b03161461160257611602838261177c565b6001600160a01b038216611619576107b281611819565b826001600160a01b0316826001600160a01b0316146107b2576107b282826118c8565b60006001600160a01b0384163b1561173e57604051630a85bd0160e11b81526001600160a01b0385169063150b7a02906116809033908990889088906004016120d3565b602060405180830381600087803b15801561169a57600080fd5b505af19250505080156116ca575060408051601f3d908101601f191682019092526116c791810190612110565b60015b611724573d8080156116f8576040519150601f19603f3d011682016040523d82523d6000602084013e6116fd565b606091505b50805161171c5760405162461bcd60e51b815260040161067c90612043565b805181602001fd5b6001600160e01b031916630a85bd0160e11b14905061115a565b506001949350505050565b611753838361190c565b611760600084848461163c565b6107b25760405162461bcd60e51b815260040161067c90612043565b6000600161178984610a1a565b611793919061202c565b6000838152600760205260409020549091508082146117e6576001600160a01b03841660009081526006602090815260408083208584528252808320548484528184208190558352600790915290208190555b5060009182526007602090815260408084208490556001600160a01b039094168352600681528383209183525290812055565b60085460009061182b9060019061202c565b6000838152600960205260408120546008805493945090928490811061185357611853611eea565b90600052602060002001549050806008838154811061187457611874611eea565b60009182526020808320909101929092558281526009909152604080822084905585825281205560088054806118ac576118ac61212d565b6001900381819060005260206000200160009055905550505050565b60006118d383610a1a565b6001600160a01b039093166000908152600660209081526040808320868452825280832085905593825260079052919091209190915550565b6001600160a01b0382166119625760405162461bcd60e51b815260206004820181905260248201527f4552433732313a206d696e7420746f20746865207a65726f2061646472657373604482015260640161067c565b6000818152600260205260409020546001600160a01b0316156119c75760405162461bcd60e51b815260206004820152601c60248201527f4552433732313a20746f6b656e20616c7265616479206d696e74656400000000604482015260640161067c565b6119d360008383611584565b6001600160a01b03821660009081526003602052604081208054600192906119fc908490611f16565b909155505060008181526002602052604080822080546001600160a01b0319166001600160a01b03861690811790915590518392907fddf252ad1be2c89b69c2b068fc378daa952ba7f163c4a11628f55a4df523b3ef908290a45050565b828054611a6690611e29565b90600052602060002090601f016020900481019282611a885760008555611ace565b82601f10611aa157805160ff1916838001178555611ace565b82800160010185558215611ace579182015b82811115611ace578251825591602001919060010190611ab3565b50611ada929150611ade565b5090565b5b80821115611ada5760008155600101611adf565b6001600160e01b0319811681146107ea57600080fd5b600060208284031215611b1b57600080fd5b8135610e0381611af3565b60005b83811015611b41578181015183820152602001611b29565b83811115610d195750506000910152565b60008151808452611b6a816020860160208601611b26565b601f01601f19169290920160200192915050565b602081526000610e036020830184611b52565b600060208284031215611ba357600080fd5b5035919050565b80356001600160a01b0381168114611bc157600080fd5b919050565b60008060408385031215611bd957600080fd5b611be283611baa565b946020939093013593505050565b600080600060608486031215611c0557600080fd5b611c0e84611baa565b9250611c1c60208501611baa565b9150604084013590509250925092565b634e487b7160e01b600052604160045260246000fd5b600067ffffffffffffffff80841115611c5d57611c5d611c2c565b604051601f8501601f19908116603f01168101908282118183101715611c8557611c85611c2c565b81604052809350858152868686011115611c9e57600080fd5b858560208301376000602087830101525050509392505050565b600060208284031215611cca57600080fd5b813567ffffffffffffffff811115611ce157600080fd5b8201601f81018413611cf257600080fd5b61115a84823560208401611c42565b600060208284031215611d1357600080fd5b610e0382611baa565b60008060408385031215611d2f57600080fd5b50508035926020909101359150565b60008060408385031215611d5157600080fd5b611d5a83611baa565b915060208301358015158114611d6f57600080fd5b809150509250929050565b60008060008060808587031215611d9057600080fd5b611d9985611baa565b9350611da760208601611baa565b925060408501359150606085013567ffffffffffffffff811115611dca57600080fd5b8501601f81018713611ddb57600080fd5b611dea87823560208401611c42565b91505092959194509250565b60008060408385031215611e0957600080fd5b611e1283611baa565b9150611e2060208401611baa565b90509250929050565b600181811c90821680611e3d57607f821691505b60208210811415611e5e57634e487b7160e01b600052602260045260246000fd5b50919050565b6020808252818101527f4f776e61626c653a2063616c6c6572206973206e6f7420746865206f776e6572604082015260600190565b60208082526031908201527f4552433732313a207472616e736665722063616c6c6572206973206e6f74206f6040820152701ddb995c881b9bdc88185c1c1c9bdd9959607a1b606082015260800190565b634e487b7160e01b600052603260045260246000fd5b634e487b7160e01b600052601160045260246000fd5b60008219821115611f2957611f29611f00565b500190565b6000816000190483118215151615611f4857611f48611f00565b500290565b600084516020611f608285838a01611b26565b855191840191611f738184848a01611b26565b8554920191600090600181811c9080831680611f9057607f831692505b858310811415611fae57634e487b7160e01b85526022600452602485fd5b808015611fc25760018114611fd357612000565b60ff19851688528388019550612000565b60008b81526020902060005b85811015611ff85781548a820152908401908801611fdf565b505083880195505b50939b9a5050505050505050505050565b600060001982141561202557612025611f00565b5060010190565b60008282101561203e5761203e611f00565b500390565b60208082526032908201527f4552433732313a207472616e7366657220746f206e6f6e20455243373231526560408201527131b2b4bb32b91034b6b83632b6b2b73a32b960711b606082015260800190565b634e487b7160e01b600052601260045260246000fd5b6000826120ba576120ba612095565b500490565b6000826120ce576120ce612095565b500690565b6001600160a01b038581168252841660208201526040810183905260806060820181905260009061210690830184611b52565b9695505050505050565b60006020828403121561212257600080fd5b8151610e0381611af3565b634e487b7160e01b600052603160045260246000fdfea264697066735822122062f5f77699d48abe08be2b0d1735387eec3ad93410e6559b26abb74c2bdd7f6a64736f6c634300080900334552433732313a207472616e7366657220746f206e6f6e204552433732315265",
  "immutableReferences": {},
  "source": "// SPDX-License-Identifier: MIT\npragma solidity >=0.8.0 <0.9.0;\n\nimport \"@openzeppelin/contracts/token/ERC721/extensions/ERC721Enumerable.sol\";\nimport \"@openzeppelin/contracts/access/Ownable.sol\";\nimport \"@openzeppelin/contracts/security/Pausable.sol\";\n\ncontract Zeta is ERC721Enumerable,Ownable,Pausable {\n    using Strings for uint256;\n\n    //period\n    uint256 start_time ; \n    uint256 end_time ;  \n\n    //active selling & reveal\n    bool _isSaleActive = false;\n\n    // Constants\n    uint256 constant max_supply = 999;\n    uint256 mintPrice = 0.001 ether;\n\n    string baseURI;\n    string notRevealedUri;\n    string baseExtension = \".json\";\n\n    constructor()ERC721(\"ZETA_Souvenir\", \"ZETA\"){\n        _mint(40);\n    }\n\n    //only owner\n    function flipSaleActive() external onlyOwner {\n        _isSaleActive = !_isSaleActive;\n    }\n\n    function setTime(uint _startTime , uint _endTime) external onlyOwner{\n        start_time = _startTime ; \n        end_time = _endTime ; \n    }\n\n\n    function tokenURI(uint256 tokenId) public view override returns (string memory) {\n        require(_exists(tokenId), \"ERC721Metadata: URI query for nonexistent token\");\n\n        string memory base_URI = _baseURI();\n        return bytes(baseURI).length > 0 ? string(abi.encodePacked(base_URI, tokenId.toString(),baseExtension)) : \"\";\n    }\n\n    function _baseURI() internal view override returns (string memory) {\n        return baseURI;\n    }\n\n    function setBaseURI(string memory _newBaseURI) external onlyOwner {\n        baseURI = _newBaseURI;\n    }\n\n    function mint(uint256 tokenQuantity) external payable whenNotPaused{\n        require(block.timestamp >= start_time && block.timestamp <= end_time , \"Not in the mint period \");\n        require(\n            totalSupply() + tokenQuantity <= max_supply,\n            \"Already achieve max supply\"\n        );\n        require(_isSaleActive, \"Sale must be active to mint\");\n        require(\n            tokenQuantity * mintPrice <= msg.value,\n            \"Not enough ether to mint\"\n        );\n\n        _mint(tokenQuantity);\n    }\n\n    function _mint(uint256 tokenQuantity) internal {\n        for (uint256 i = 0; i < tokenQuantity; i++) {\n            uint256 mintIndex = totalSupply();\n            if (totalSupply() < max_supply) {\n                _safeMint(msg.sender, mintIndex);\n            }\n        }\n    }\n\n    function init_mint(uint _uint) external onlyOwner{\n        _mint(_uint);\n    }\n\n    function withdrawBalance(uint256 amount) external onlyOwner{\n        address owner = owner();\n        payable(owner).transfer(amount);\n    }\n\n    function checkBalance() external view returns(uint) {\n        return address(this).balance;\n    }\n\n    function getTime() external view returns(uint){\n        return block.timestamp ; \n    }\n}\n",
  "sourcePath": "/Users/Brian/www/blockchain/solidity_NFT/contracts/Zeta.sol",
  "compiler": {
    "name": "solc",
    "version": "0.8.9+commit.e5eed63a.Emscripten.clang"
  },
  "schemaVersion": "3.4.7",
  "updatedAt": "2022-04-13T08:43:47.104Z",
  "networkType": "ethereum",
  "devdoc": {
    "kind": "dev",
    "methods": {
      "approve(address,uint256)": {
        "details": "See {IERC721-approve}."
      },
      "balanceOf(address)": {
        "details": "See {IERC721-balanceOf}."
      },
      "getApproved(uint256)": {
        "details": "See {IERC721-getApproved}."
      },
      "isApprovedForAll(address,address)": {
        "details": "See {IERC721-isApprovedForAll}."
      },
      "name()": {
        "details": "See {IERC721Metadata-name}."
      },
      "owner()": {
        "details": "Returns the address of the current owner."
      },
      "ownerOf(uint256)": {
        "details": "See {IERC721-ownerOf}."
      },
      "paused()": {
        "details": "Returns true if the contract is paused, and false otherwise."
      },
      "renounceOwnership()": {
        "details": "Leaves the contract without owner. It will not be possible to call `onlyOwner` functions anymore. Can only be called by the current owner. NOTE: Renouncing ownership will leave the contract without an owner, thereby removing any functionality that is only available to the owner."
      },
      "safeTransferFrom(address,address,uint256)": {
        "details": "See {IERC721-safeTransferFrom}."
      },
      "safeTransferFrom(address,address,uint256,bytes)": {
        "details": "See {IERC721-safeTransferFrom}."
      },
      "setApprovalForAll(address,bool)": {
        "details": "See {IERC721-setApprovalForAll}."
      },
      "supportsInterface(bytes4)": {
        "details": "See {IERC165-supportsInterface}."
      },
      "symbol()": {
        "details": "See {IERC721Metadata-symbol}."
      },
      "tokenByIndex(uint256)": {
        "details": "See {IERC721Enumerable-tokenByIndex}."
      },
      "tokenOfOwnerByIndex(address,uint256)": {
        "details": "See {IERC721Enumerable-tokenOfOwnerByIndex}."
      },
      "tokenURI(uint256)": {
        "details": "See {IERC721Metadata-tokenURI}."
      },
      "totalSupply()": {
        "details": "See {IERC721Enumerable-totalSupply}."
      },
      "transferFrom(address,address,uint256)": {
        "details": "See {IERC721-transferFrom}."
      },
      "transferOwnership(address)": {
        "details": "Transfers ownership of the contract to a new account (`newOwner`). Can only be called by the current owner."
      }
    },
    "version": 1
  },
  "userdoc": {
    "kind": "user",
    "methods": {},
    "version": 1
  }
}